{
  "contracts/Pharma.sol": {
    "Pharma": {
      "abi": [
        {
          "anonymous": false,
          "inputs": [
            {
              "indexed": false,
              "internalType": "string",
              "name": "medicineId",
              "type": "string"
            },
            {
              "indexed": false,
              "internalType": "string",
              "name": "distributorName",
              "type": "string"
            },
            {
              "indexed": false,
              "internalType": "address",
              "name": "newOwner",
              "type": "address"
            },
            {
              "indexed": false,
              "internalType": "uint256",
              "name": "timestamp",
              "type": "uint256"
            }
          ],
          "name": "DistributorUpdated",
          "type": "event"
        },
        {
          "anonymous": false,
          "inputs": [
            {
              "indexed": false,
              "internalType": "string",
              "name": "medicineId",
              "type": "string"
            },
            {
              "indexed": false,
              "internalType": "string",
              "name": "name",
              "type": "string"
            },
            {
              "indexed": false,
              "internalType": "address",
              "name": "owner",
              "type": "address"
            },
            {
              "indexed": false,
              "internalType": "uint256",
              "name": "timestamp",
              "type": "uint256"
            }
          ],
          "name": "MedicineAdded",
          "type": "event"
        },
        {
          "anonymous": false,
          "inputs": [
            {
              "indexed": false,
              "internalType": "string",
              "name": "medicineId",
              "type": "string"
            },
            {
              "indexed": false,
              "internalType": "uint256",
              "name": "timestamp",
              "type": "uint256"
            }
          ],
          "name": "MedicineSold",
          "type": "event"
        },
        {
          "anonymous": false,
          "inputs": [
            {
              "indexed": false,
              "internalType": "string",
              "name": "medicineId",
              "type": "string"
            },
            {
              "indexed": false,
              "internalType": "address",
              "name": "from",
              "type": "address"
            },
            {
              "indexed": false,
              "internalType": "address",
              "name": "to",
              "type": "address"
            },
            {
              "indexed": false,
              "internalType": "uint256",
              "name": "timestamp",
              "type": "uint256"
            }
          ],
          "name": "OwnershipTransferred",
          "type": "event"
        },
        {
          "anonymous": false,
          "inputs": [
            {
              "indexed": false,
              "internalType": "string",
              "name": "medicineId",
              "type": "string"
            },
            {
              "indexed": false,
              "internalType": "string",
              "name": "pharmacyName",
              "type": "string"
            },
            {
              "indexed": false,
              "internalType": "address",
              "name": "newOwner",
              "type": "address"
            },
            {
              "indexed": false,
              "internalType": "uint256",
              "name": "timestamp",
              "type": "uint256"
            }
          ],
          "name": "PharmacyUpdated",
          "type": "event"
        },
        {
          "inputs": [
            {
              "internalType": "string",
              "name": "_medicineId",
              "type": "string"
            },
            {
              "internalType": "string",
              "name": "_name",
              "type": "string"
            },
            {
              "internalType": "string",
              "name": "_batchNumber",
              "type": "string"
            },
            {
              "internalType": "string",
              "name": "_manufacturingDate",
              "type": "string"
            },
            {
              "internalType": "string",
              "name": "_expiryDate",
              "type": "string"
            },
            {
              "internalType": "string",
              "name": "_manufacturerName",
              "type": "string"
            }
          ],
          "name": "addMedicine",
          "outputs": [],
          "stateMutability": "nonpayable",
          "type": "function"
        },
        {
          "inputs": [
            {
              "internalType": "string",
              "name": "_medicineId",
              "type": "string"
            },
            {
              "internalType": "string",
              "name": "_distributorName",
              "type": "string"
            },
            {
              "internalType": "address",
              "name": "_distributorAddress",
              "type": "address"
            }
          ],
          "name": "assignDistributor",
          "outputs": [],
          "stateMutability": "nonpayable",
          "type": "function"
        },
        {
          "inputs": [
            {
              "internalType": "string",
              "name": "_medicineId",
              "type": "string"
            },
            {
              "internalType": "string",
              "name": "_pharmacyName",
              "type": "string"
            },
            {
              "internalType": "address",
              "name": "_pharmacyAddress",
              "type": "address"
            }
          ],
          "name": "assignPharmacy",
          "outputs": [],
          "stateMutability": "nonpayable",
          "type": "function"
        },
        {
          "inputs": [],
          "name": "getAllMedicineIds",
          "outputs": [
            {
              "internalType": "string[]",
              "name": "",
              "type": "string[]"
            }
          ],
          "stateMutability": "view",
          "type": "function"
        },
        {
          "inputs": [
            {
              "internalType": "string",
              "name": "_medicineId",
              "type": "string"
            }
          ],
          "name": "getMedicine",
          "outputs": [
            {
              "components": [
                {
                  "internalType": "string",
                  "name": "medicineId",
                  "type": "string"
                },
                {
                  "internalType": "string",
                  "name": "name",
                  "type": "string"
                },
                {
                  "internalType": "string",
                  "name": "batchNumber",
                  "type": "string"
                },
                {
                  "internalType": "string",
                  "name": "manufacturingDate",
                  "type": "string"
                },
                {
                  "internalType": "string",
                  "name": "expiryDate",
                  "type": "string"
                },
                {
                  "internalType": "string",
                  "name": "manufacturerName",
                  "type": "string"
                },
                {
                  "internalType": "string",
                  "name": "distributorName",
                  "type": "string"
                },
                {
                  "internalType": "string",
                  "name": "pharmacyName",
                  "type": "string"
                },
                {
                  "internalType": "address",
                  "name": "currentOwner",
                  "type": "address"
                },
                {
                  "internalType": "enum Pharma.Status",
                  "name": "currentStatus",
                  "type": "uint8"
                },
                {
                  "internalType": "uint256",
                  "name": "timestamp",
                  "type": "uint256"
                }
              ],
              "internalType": "struct Pharma.Medicine",
              "name": "",
              "type": "tuple"
            }
          ],
          "stateMutability": "view",
          "type": "function"
        },
        {
          "inputs": [],
          "name": "getMedicineCount",
          "outputs": [
            {
              "internalType": "uint256",
              "name": "",
              "type": "uint256"
            }
          ],
          "stateMutability": "view",
          "type": "function"
        },
        {
          "inputs": [
            {
              "internalType": "string",
              "name": "_medicineId",
              "type": "string"
            }
          ],
          "name": "markAvailableAtPharmacy",
          "outputs": [],
          "stateMutability": "nonpayable",
          "type": "function"
        },
        {
          "inputs": [
            {
              "internalType": "uint256",
              "name": "",
              "type": "uint256"
            }
          ],
          "name": "medicineIds",
          "outputs": [
            {
              "internalType": "string",
              "name": "",
              "type": "string"
            }
          ],
          "stateMutability": "view",
          "type": "function"
        },
        {
          "inputs": [
            {
              "internalType": "string",
              "name": "",
              "type": "string"
            }
          ],
          "name": "medicines",
          "outputs": [
            {
              "internalType": "string",
              "name": "medicineId",
              "type": "string"
            },
            {
              "internalType": "string",
              "name": "name",
              "type": "string"
            },
            {
              "internalType": "string",
              "name": "batchNumber",
              "type": "string"
            },
            {
              "internalType": "string",
              "name": "manufacturingDate",
              "type": "string"
            },
            {
              "internalType": "string",
              "name": "expiryDate",
              "type": "string"
            },
            {
              "internalType": "string",
              "name": "manufacturerName",
              "type": "string"
            },
            {
              "internalType": "string",
              "name": "distributorName",
              "type": "string"
            },
            {
              "internalType": "string",
              "name": "pharmacyName",
              "type": "string"
            },
            {
              "internalType": "address",
              "name": "currentOwner",
              "type": "address"
            },
            {
              "internalType": "enum Pharma.Status",
              "name": "currentStatus",
              "type": "uint8"
            },
            {
              "internalType": "uint256",
              "name": "timestamp",
              "type": "uint256"
            }
          ],
          "stateMutability": "view",
          "type": "function"
        },
        {
          "inputs": [
            {
              "internalType": "string",
              "name": "_medicineId",
              "type": "string"
            }
          ],
          "name": "receiveByDistributor",
          "outputs": [],
          "stateMutability": "nonpayable",
          "type": "function"
        },
        {
          "inputs": [
            {
              "internalType": "string",
              "name": "_medicineId",
              "type": "string"
            }
          ],
          "name": "sellMedicine",
          "outputs": [],
          "stateMutability": "nonpayable",
          "type": "function"
        }
      ],
      "evm": {
        "bytecode": {
          "linkReferences": {},
          "object": "608060405234801561001057600080fd5b506129a9806100206000396000f3fe608060405234801561001057600080fd5b50600436106100a95760003560e01c80634cdf4c5d116100715780634cdf4c5d1461015a5780634f5949ba1461017657806390c6347714610192578063a5d7cedd146101c2578063d22ef8ee146101f2578063eadeb84c1461020e576100a9565b80631262a67e146100ae57806313399534146100cc57806321b9da99146100e857806332a486d81461012257806340075e791461013e575b600080fd5b6100b661022c565b6040516100c39190611c8c565b60405180910390f35b6100e660048036038101906100e19190611df7565b610305565b005b61010260048036038101906100fd9190611df7565b61049a565b6040516101199b9a99989796959493929190611f5b565b60405180910390f35b61013c6004803603810190610137919061203e565b610977565b005b6101586004803603810190610153919061219f565b610c48565b005b610174600480360381019061016f919061219f565b610ec0565b005b610190600480360381019061018b9190611df7565b611138565b005b6101ac60048036038101906101a79190611df7565b6112cd565b6040516101b99190612377565b60405180910390f35b6101dc60048036038101906101d791906123c5565b611831565b6040516101e991906123f2565b60405180910390f35b61020c60048036038101906102079190611df7565b6118dd565b005b610216611aab565b6040516102239190612414565b60405180910390f35b60606001805480602002602001604051908101604052809291908181526020016000905b828210156102fc57838290600052602060002001805461026f9061245e565b80601f016020809104026020016040519081016040528092919081815260200182805461029b9061245e565b80156102e85780601f106102bd576101008083540402835291602001916102e8565b820191906000526020600020905b8154815290600101906020018083116102cb57829003601f168201915b505050505081526020019060010190610250565b50505050905090565b806000808260405161031791906124cb565b908152602001604051809103902060000180546103339061245e565b905011610375576040517f08c379a000000000000000000000000000000000000000000000000000000000815260040161036c9061252e565b60405180910390fd5b813373ffffffffffffffffffffffffffffffffffffffff1660008260405161039d91906124cb565b908152602001604051809103902060080160009054906101000a900473ffffffffffffffffffffffffffffffffffffffff1673ffffffffffffffffffffffffffffffffffffffff1614610425576040517f08c379a000000000000000000000000000000000000000000000000000000000815260040161041c9061259a565b60405180910390fd5b600260008460405161043791906124cb565b908152602001604051809103902060080160146101000a81548160ff0219169083600581111561046a57610469611ecb565b5b02179055504260008460405161048091906124cb565b908152602001604051809103902060090181905550505050565b6000818051602081018201805184825260208301602085012081835280955050505050506000915090508060000180546104d39061245e565b80601f01602080910402602001604051908101604052809291908181526020018280546104ff9061245e565b801561054c5780601f106105215761010080835404028352916020019161054c565b820191906000526020600020905b81548152906001019060200180831161052f57829003601f168201915b5050505050908060010180546105619061245e565b80601f016020809104026020016040519081016040528092919081815260200182805461058d9061245e565b80156105da5780601f106105af576101008083540402835291602001916105da565b820191906000526020600020905b8154815290600101906020018083116105bd57829003601f168201915b5050505050908060020180546105ef9061245e565b80601f016020809104026020016040519081016040528092919081815260200182805461061b9061245e565b80156106685780601f1061063d57610100808354040283529160200191610668565b820191906000526020600020905b81548152906001019060200180831161064b57829003601f168201915b50505050509080600301805461067d9061245e565b80601f01602080910402602001604051908101604052809291908181526020018280546106a99061245e565b80156106f65780601f106106cb576101008083540402835291602001916106f6565b820191906000526020600020905b8154815290600101906020018083116106d957829003601f168201915b50505050509080600401805461070b9061245e565b80601f01602080910402602001604051908101604052809291908181526020018280546107379061245e565b80156107845780601f1061075957610100808354040283529160200191610784565b820191906000526020600020905b81548152906001019060200180831161076757829003601f168201915b5050505050908060050180546107999061245e565b80601f01602080910402602001604051908101604052809291908181526020018280546107c59061245e565b80156108125780601f106107e757610100808354040283529160200191610812565b820191906000526020600020905b8154815290600101906020018083116107f557829003601f168201915b5050505050908060060180546108279061245e565b80601f01602080910402602001604051908101604052809291908181526020018280546108539061245e565b80156108a05780601f10610875576101008083540402835291602001916108a0565b820191906000526020600020905b81548152906001019060200180831161088357829003601f168201915b5050505050908060070180546108b59061245e565b80601f01602080910402602001604051908101604052809291908181526020018280546108e19061245e565b801561092e5780601f106109035761010080835404028352916020019161092e565b820191906000526020600020905b81548152906001019060200180831161091157829003601f168201915b5050505050908060080160009054906101000a900473ffffffffffffffffffffffffffffffffffffffff16908060080160149054906101000a900460ff1690806009015490508b565b6000808760405161098891906124cb565b908152602001604051809103902060000180546109a49061245e565b9050146109e6576040517f08c379a00000000000000000000000000000000000000000000000000000000081526004016109dd90612606565b60405180910390fd5b6040518061016001604052808781526020018681526020018581526020018481526020018381526020018281526020016040518060200160405280600081525081526020016040518060200160405280600081525081526020013373ffffffffffffffffffffffffffffffffffffffff16815260200160006005811115610a7057610a6f611ecb565b5b815260200142815250600087604051610a8991906124cb565b90815260200160405180910390206000820151816000019081610aac91906127d2565b506020820151816001019081610ac291906127d2565b506040820151816002019081610ad891906127d2565b506060820151816003019081610aee91906127d2565b506080820151816004019081610b0491906127d2565b5060a0820151816005019081610b1a91906127d2565b5060c0820151816006019081610b3091906127d2565b5060e0820151816007019081610b4691906127d2565b506101008201518160080160006101000a81548173ffffffffffffffffffffffffffffffffffffffff021916908373ffffffffffffffffffffffffffffffffffffffff1602179055506101208201518160080160146101000a81548160ff02191690836005811115610bbb57610bba611ecb565b5b02179055506101408201518160090155905050600186908060018154018082558091505060019003906000526020600020016000909190919091509081610c0291906127d2565b507f04208a3bc3099751d24517e70ace4ecc3eb3f50481b08c03be86ca1cc487608886863342604051610c3894939291906128a4565b60405180910390a1505050505050565b8260008082604051610c5a91906124cb565b90815260200160405180910390206000018054610c769061245e565b905011610cb8576040517f08c379a0000000000000000000000000000000000000000000000000000000008152600401610caf9061252e565b60405180910390fd5b833373ffffffffffffffffffffffffffffffffffffffff16600082604051610ce091906124cb565b908152602001604051809103902060080160009054906101000a900473ffffffffffffffffffffffffffffffffffffffff1673ffffffffffffffffffffffffffffffffffffffff1614610d68576040517f08c379a0000000000000000000000000000000000000000000000000000000008152600401610d5f9061259a565b60405180910390fd5b60008086604051610d7991906124cb565b9081526020016040518091039020905084816006019081610d9a91906127d2565b5060018160080160146101000a81548160ff02191690836005811115610dc357610dc2611ecb565b5b021790555060008160080160009054906101000a900473ffffffffffffffffffffffffffffffffffffffff169050848260080160006101000a81548173ffffffffffffffffffffffffffffffffffffffff021916908373ffffffffffffffffffffffffffffffffffffffff1602179055504282600901819055507fd3ef4098651d2a212bb9864dfbb715f9c9695ecf7194031a7fd0ec97087801b487878742604051610e7294939291906128a4565b60405180910390a17fe9bf8dbaa7eb0b6910401512e60afcae7734db09df0b7291b4a16e630d796e5687828742604051610eaf94939291906128f7565b60405180910390a150505050505050565b8260008082604051610ed291906124cb565b90815260200160405180910390206000018054610eee9061245e565b905011610f30576040517f08c379a0000000000000000000000000000000000000000000000000000000008152600401610f279061252e565b60405180910390fd5b833373ffffffffffffffffffffffffffffffffffffffff16600082604051610f5891906124cb565b908152602001604051809103902060080160009054906101000a900473ffffffffffffffffffffffffffffffffffffffff1673ffffffffffffffffffffffffffffffffffffffff1614610fe0576040517f08c379a0000000000000000000000000000000000000000000000000000000008152600401610fd79061259a565b60405180910390fd5b60008086604051610ff191906124cb565b908152602001604051809103902090508481600701908161101291906127d2565b5060038160080160146101000a81548160ff0219169083600581111561103b5761103a611ecb565b5b021790555060008160080160009054906101000a900473ffffffffffffffffffffffffffffffffffffffff169050848260080160006101000a81548173ffffffffffffffffffffffffffffffffffffffff021916908373ffffffffffffffffffffffffffffffffffffffff1602179055504282600901819055507fac779e74d34a836730a9dc649f78c052913f7286c50d3af009df8a790a91f57e878787426040516110ea94939291906128a4565b60405180910390a17fe9bf8dbaa7eb0b6910401512e60afcae7734db09df0b7291b4a16e630d796e568782874260405161112794939291906128f7565b60405180910390a150505050505050565b806000808260405161114a91906124cb565b908152602001604051809103902060000180546111669061245e565b9050116111a8576040517f08c379a000000000000000000000000000000000000000000000000000000000815260040161119f9061252e565b60405180910390fd5b813373ffffffffffffffffffffffffffffffffffffffff166000826040516111d091906124cb565b908152602001604051809103902060080160009054906101000a900473ffffffffffffffffffffffffffffffffffffffff1673ffffffffffffffffffffffffffffffffffffffff1614611258576040517f08c379a000000000000000000000000000000000000000000000000000000000815260040161124f9061259a565b60405180910390fd5b600460008460405161126a91906124cb565b908152602001604051809103902060080160146101000a81548160ff0219169083600581111561129d5761129c611ecb565b5b0217905550426000846040516112b391906124cb565b908152602001604051809103902060090181905550505050565b6112d5611ab8565b6000826040516112e591906124cb565b90815260200160405180910390206040518061016001604052908160008201805461130f9061245e565b80601f016020809104026020016040519081016040528092919081815260200182805461133b9061245e565b80156113885780601f1061135d57610100808354040283529160200191611388565b820191906000526020600020905b81548152906001019060200180831161136b57829003601f168201915b505050505081526020016001820180546113a19061245e565b80601f01602080910402602001604051908101604052809291908181526020018280546113cd9061245e565b801561141a5780601f106113ef5761010080835404028352916020019161141a565b820191906000526020600020905b8154815290600101906020018083116113fd57829003601f168201915b505050505081526020016002820180546114339061245e565b80601f016020809104026020016040519081016040528092919081815260200182805461145f9061245e565b80156114ac5780601f10611481576101008083540402835291602001916114ac565b820191906000526020600020905b81548152906001019060200180831161148f57829003601f168201915b505050505081526020016003820180546114c59061245e565b80601f01602080910402602001604051908101604052809291908181526020018280546114f19061245e565b801561153e5780601f106115135761010080835404028352916020019161153e565b820191906000526020600020905b81548152906001019060200180831161152157829003601f168201915b505050505081526020016004820180546115579061245e565b80601f01602080910402602001604051908101604052809291908181526020018280546115839061245e565b80156115d05780601f106115a5576101008083540402835291602001916115d0565b820191906000526020600020905b8154815290600101906020018083116115b357829003601f168201915b505050505081526020016005820180546115e99061245e565b80601f01602080910402602001604051908101604052809291908181526020018280546116159061245e565b80156116625780601f1061163757610100808354040283529160200191611662565b820191906000526020600020905b81548152906001019060200180831161164557829003601f168201915b5050505050815260200160068201805461167b9061245e565b80601f01602080910402602001604051908101604052809291908181526020018280546116a79061245e565b80156116f45780601f106116c9576101008083540402835291602001916116f4565b820191906000526020600020905b8154815290600101906020018083116116d757829003601f168201915b5050505050815260200160078201805461170d9061245e565b80601f01602080910402602001604051908101604052809291908181526020018280546117399061245e565b80156117865780601f1061175b57610100808354040283529160200191611786565b820191906000526020600020905b81548152906001019060200180831161176957829003601f168201915b505050505081526020016008820160009054906101000a900473ffffffffffffffffffffffffffffffffffffffff1673ffffffffffffffffffffffffffffffffffffffff1673ffffffffffffffffffffffffffffffffffffffff1681526020016008820160149054906101000a900460ff16600581111561180a57611809611ecb565b5b600581111561181c5761181b611ecb565b5b81526020016009820154815250509050919050565b6001818154811061184157600080fd5b90600052602060002001600091509050805461185c9061245e565b80601f01602080910402602001604051908101604052809291908181526020018280546118889061245e565b80156118d55780601f106118aa576101008083540402835291602001916118d5565b820191906000526020600020905b8154815290600101906020018083116118b857829003601f168201915b505050505081565b80600080826040516118ef91906124cb565b9081526020016040518091039020600001805461190b9061245e565b90501161194d576040517f08c379a00000000000000000000000000000000000000000000000000000000081526004016119449061252e565b60405180910390fd5b813373ffffffffffffffffffffffffffffffffffffffff1660008260405161197591906124cb565b908152602001604051809103902060080160009054906101000a900473ffffffffffffffffffffffffffffffffffffffff1673ffffffffffffffffffffffffffffffffffffffff16146119fd576040517f08c379a00000000000000000000000000000000000000000000000000000000081526004016119f49061259a565b60405180910390fd5b6005600084604051611a0f91906124cb565b908152602001604051809103902060080160146101000a81548160ff02191690836005811115611a4257611a41611ecb565b5b021790555042600084604051611a5891906124cb565b9081526020016040518091039020600901819055507f77901e18e90543da6c897c086e6fa8a68f294f4f6e448157330b6067740b98488342604051611a9e929190612943565b60405180910390a1505050565b6000600180549050905090565b6040518061016001604052806060815260200160608152602001606081526020016060815260200160608152602001606081526020016060815260200160608152602001600073ffffffffffffffffffffffffffffffffffffffff16815260200160006005811115611b2d57611b2c611ecb565b5b8152602001600081525090565b600081519050919050565b600082825260208201905092915050565b6000819050602082019050919050565b600081519050919050565b600082825260208201905092915050565b60005b83811015611ba0578082015181840152602081019050611b85565b60008484015250505050565b6000601f19601f8301169050919050565b6000611bc882611b66565b611bd28185611b71565b9350611be2818560208601611b82565b611beb81611bac565b840191505092915050565b6000611c028383611bbd565b905092915050565b6000602082019050919050565b6000611c2282611b3a565b611c2c8185611b45565b935083602082028501611c3e85611b56565b8060005b85811015611c7a5784840389528151611c5b8582611bf6565b9450611c6683611c0a565b925060208a01995050600181019050611c42565b50829750879550505050505092915050565b60006020820190508181036000830152611ca68184611c17565b905092915050565b6000604051905090565b600080fd5b600080fd5b600080fd5b600080fd5b7f4e487b7100000000000000000000000000000000000000000000000000000000600052604160045260246000fd5b611d0482611bac565b810181811067ffffffffffffffff82111715611d2357611d22611ccc565b5b80604052505050565b6000611d36611cae565b9050611d428282611cfb565b919050565b600067ffffffffffffffff821115611d6257611d61611ccc565b5b611d6b82611bac565b9050602081019050919050565b82818337600083830152505050565b6000611d9a611d9584611d47565b611d2c565b905082815260208101848484011115611db657611db5611cc7565b5b611dc1848285611d78565b509392505050565b600082601f830112611dde57611ddd611cc2565b5b8135611dee848260208601611d87565b91505092915050565b600060208284031215611e0d57611e0c611cb8565b5b600082013567ffffffffffffffff811115611e2b57611e2a611cbd565b5b611e3784828501611dc9565b91505092915050565b600082825260208201905092915050565b6000611e5c82611b66565b611e668185611e40565b9350611e76818560208601611b82565b611e7f81611bac565b840191505092915050565b600073ffffffffffffffffffffffffffffffffffffffff82169050919050565b6000611eb582611e8a565b9050919050565b611ec581611eaa565b82525050565b7f4e487b7100000000000000000000000000000000000000000000000000000000600052602160045260246000fd5b60068110611f0b57611f0a611ecb565b5b50565b6000819050611f1c82611efa565b919050565b6000611f2c82611f0e565b9050919050565b611f3c81611f21565b82525050565b6000819050919050565b611f5581611f42565b82525050565b6000610160820190508181036000830152611f76818e611e51565b90508181036020830152611f8a818d611e51565b90508181036040830152611f9e818c611e51565b90508181036060830152611fb2818b611e51565b90508181036080830152611fc6818a611e51565b905081810360a0830152611fda8189611e51565b905081810360c0830152611fee8188611e51565b905081810360e08301526120028187611e51565b9050612012610100830186611ebc565b612020610120830185611f33565b61202e610140830184611f4c565b9c9b505050505050505050505050565b60008060008060008060c0878903121561205b5761205a611cb8565b5b600087013567ffffffffffffffff81111561207957612078611cbd565b5b61208589828a01611dc9565b965050602087013567ffffffffffffffff8111156120a6576120a5611cbd565b5b6120b289828a01611dc9565b955050604087013567ffffffffffffffff8111156120d3576120d2611cbd565b5b6120df89828a01611dc9565b945050606087013567ffffffffffffffff811115612100576120ff611cbd565b5b61210c89828a01611dc9565b935050608087013567ffffffffffffffff81111561212d5761212c611cbd565b5b61213989828a01611dc9565b92505060a087013567ffffffffffffffff81111561215a57612159611cbd565b5b61216689828a01611dc9565b9150509295509295509295565b61217c81611eaa565b811461218757600080fd5b50565b60008135905061219981612173565b92915050565b6000806000606084860312156121b8576121b7611cb8565b5b600084013567ffffffffffffffff8111156121d6576121d5611cbd565b5b6121e286828701611dc9565b935050602084013567ffffffffffffffff81111561220357612202611cbd565b5b61220f86828701611dc9565b92505060406122208682870161218a565b9150509250925092565b61223381611eaa565b82525050565b61224281611f21565b82525050565b61225181611f42565b82525050565b60006101608301600083015184820360008601526122758282611bbd565b9150506020830151848203602086015261228f8282611bbd565b915050604083015184820360408601526122a98282611bbd565b915050606083015184820360608601526122c38282611bbd565b915050608083015184820360808601526122dd8282611bbd565b91505060a083015184820360a08601526122f78282611bbd565b91505060c083015184820360c08601526123118282611bbd565b91505060e083015184820360e086015261232b8282611bbd565b91505061010083015161234261010086018261222a565b50610120830151612357610120860182612239565b5061014083015161236c610140860182612248565b508091505092915050565b600060208201905081810360008301526123918184612257565b905092915050565b6123a281611f42565b81146123ad57600080fd5b50565b6000813590506123bf81612399565b92915050565b6000602082840312156123db576123da611cb8565b5b60006123e9848285016123b0565b91505092915050565b6000602082019050818103600083015261240c8184611e51565b905092915050565b60006020820190506124296000830184611f4c565b92915050565b7f4e487b7100000000000000000000000000000000000000000000000000000000600052602260045260246000fd5b6000600282049050600182168061247657607f821691505b6020821081036124895761248861242f565b5b50919050565b600081905092915050565b60006124a582611b66565b6124af818561248f565b93506124bf818560208601611b82565b80840191505092915050565b60006124d7828461249a565b915081905092915050565b7f4d65646963696e65206e6f7420666f756e640000000000000000000000000000600082015250565b6000612518601283611e40565b9150612523826124e2565b602082019050919050565b600060208201905081810360008301526125478161250b565b9050919050565b7f4e6f7420746865206f776e657200000000000000000000000000000000000000600082015250565b6000612584600d83611e40565b915061258f8261254e565b602082019050919050565b600060208201905081810360008301526125b381612577565b9050919050565b7f4d65646963696e6520616c726561647920657869737473000000000000000000600082015250565b60006125f0601783611e40565b91506125fb826125ba565b602082019050919050565b6000602082019050818103600083015261261f816125e3565b9050919050565b60008190508160005260206000209050919050565b60006020601f8301049050919050565b600082821b905092915050565b6000600883026126887fffffffffffffffffffffffffffffffffffffffffffffffffffffffffffffffff8261264b565b612692868361264b565b95508019841693508086168417925050509392505050565b6000819050919050565b60006126cf6126ca6126c584611f42565b6126aa565b611f42565b9050919050565b6000819050919050565b6126e9836126b4565b6126fd6126f5826126d6565b848454612658565b825550505050565b600090565b612712612705565b61271d8184846126e0565b505050565b5b818110156127415761273660008261270a565b600181019050612723565b5050565b601f8211156127865761275781612626565b6127608461263b565b8101602085101561276f578190505b61278361277b8561263b565b830182612722565b50505b505050565b600082821c905092915050565b60006127a96000198460080261278b565b1980831691505092915050565b60006127c28383612798565b9150826002028217905092915050565b6127db82611b66565b67ffffffffffffffff8111156127f4576127f3611ccc565b5b6127fe825461245e565b612809828285612745565b600060209050601f83116001811461283c576000841561282a578287015190505b61283485826127b6565b86555061289c565b601f19841661284a86612626565b60005b828110156128725784890151825560018201915060208501945060208101905061284d565b8683101561288f578489015161288b601f891682612798565b8355505b6001600288020188555050505b505050505050565b600060808201905081810360008301526128be8187611e51565b905081810360208301526128d28186611e51565b90506128e16040830185611ebc565b6128ee6060830184611f4c565b95945050505050565b600060808201905081810360008301526129118187611e51565b90506129206020830186611ebc565b61292d6040830185611ebc565b61293a6060830184611f4c565b95945050505050565b6000604082019050818103600083015261295d8185611e51565b905061296c6020830184611f4c565b939250505056fea264697066735822122024d197ec0fb99125ec2426631d792851bad7dfece3c9dc5d7508970d3a7958a564736f6c63430008140033",
          "opcodes": "PUSH1 0x80 PUSH1 0x40 MSTORE CALLVALUE DUP1 ISZERO PUSH2 0x10 JUMPI PUSH1 0x0 DUP1 REVERT JUMPDEST POP PUSH2 0x29A9 DUP1 PUSH2 0x20 PUSH1 0x0 CODECOPY PUSH1 0x0 RETURN INVALID PUSH1 0x80 PUSH1 0x40 MSTORE CALLVALUE DUP1 ISZERO PUSH2 0x10 JUMPI PUSH1 0x0 DUP1 REVERT JUMPDEST POP PUSH1 0x4 CALLDATASIZE LT PUSH2 0xA9 JUMPI PUSH1 0x0 CALLDATALOAD PUSH1 0xE0 SHR DUP1 PUSH4 0x4CDF4C5D GT PUSH2 0x71 JUMPI DUP1 PUSH4 0x4CDF4C5D EQ PUSH2 0x15A JUMPI DUP1 PUSH4 0x4F5949BA EQ PUSH2 0x176 JUMPI DUP1 PUSH4 0x90C63477 EQ PUSH2 0x192 JUMPI DUP1 PUSH4 0xA5D7CEDD EQ PUSH2 0x1C2 JUMPI DUP1 PUSH4 0xD22EF8EE EQ PUSH2 0x1F2 JUMPI DUP1 PUSH4 0xEADEB84C EQ PUSH2 0x20E JUMPI PUSH2 0xA9 JUMP JUMPDEST DUP1 PUSH4 0x1262A67E EQ PUSH2 0xAE JUMPI DUP1 PUSH4 0x13399534 EQ PUSH2 0xCC JUMPI DUP1 PUSH4 0x21B9DA99 EQ PUSH2 0xE8 JUMPI DUP1 PUSH4 0x32A486D8 EQ PUSH2 0x122 JUMPI DUP1 PUSH4 0x40075E79 EQ PUSH2 0x13E JUMPI JUMPDEST PUSH1 0x0 DUP1 REVERT JUMPDEST PUSH2 0xB6 PUSH2 0x22C JUMP JUMPDEST PUSH1 0x40 MLOAD PUSH2 0xC3 SWAP2 SWAP1 PUSH2 0x1C8C JUMP JUMPDEST PUSH1 0x40 MLOAD DUP1 SWAP2 SUB SWAP1 RETURN JUMPDEST PUSH2 0xE6 PUSH1 0x4 DUP1 CALLDATASIZE SUB DUP2 ADD SWAP1 PUSH2 0xE1 SWAP2 SWAP1 PUSH2 0x1DF7 JUMP JUMPDEST PUSH2 0x305 JUMP JUMPDEST STOP JUMPDEST PUSH2 0x102 PUSH1 0x4 DUP1 CALLDATASIZE SUB DUP2 ADD SWAP1 PUSH2 0xFD SWAP2 SWAP1 PUSH2 0x1DF7 JUMP JUMPDEST PUSH2 0x49A JUMP JUMPDEST PUSH1 0x40 MLOAD PUSH2 0x119 SWAP12 SWAP11 SWAP10 SWAP9 SWAP8 SWAP7 SWAP6 SWAP5 SWAP4 SWAP3 SWAP2 SWAP1 PUSH2 0x1F5B JUMP JUMPDEST PUSH1 0x40 MLOAD DUP1 SWAP2 SUB SWAP1 RETURN JUMPDEST PUSH2 0x13C PUSH1 0x4 DUP1 CALLDATASIZE SUB DUP2 ADD SWAP1 PUSH2 0x137 SWAP2 SWAP1 PUSH2 0x203E JUMP JUMPDEST PUSH2 0x977 JUMP JUMPDEST STOP JUMPDEST PUSH2 0x158 PUSH1 0x4 DUP1 CALLDATASIZE SUB DUP2 ADD SWAP1 PUSH2 0x153 SWAP2 SWAP1 PUSH2 0x219F JUMP JUMPDEST PUSH2 0xC48 JUMP JUMPDEST STOP JUMPDEST PUSH2 0x174 PUSH1 0x4 DUP1 CALLDATASIZE SUB DUP2 ADD SWAP1 PUSH2 0x16F SWAP2 SWAP1 PUSH2 0x219F JUMP JUMPDEST PUSH2 0xEC0 JUMP JUMPDEST STOP JUMPDEST PUSH2 0x190 PUSH1 0x4 DUP1 CALLDATASIZE SUB DUP2 ADD SWAP1 PUSH2 0x18B SWAP2 SWAP1 PUSH2 0x1DF7 JUMP JUMPDEST PUSH2 0x1138 JUMP JUMPDEST STOP JUMPDEST PUSH2 0x1AC PUSH1 0x4 DUP1 CALLDATASIZE SUB DUP2 ADD SWAP1 PUSH2 0x1A7 SWAP2 SWAP1 PUSH2 0x1DF7 JUMP JUMPDEST PUSH2 0x12CD JUMP JUMPDEST PUSH1 0x40 MLOAD PUSH2 0x1B9 SWAP2 SWAP1 PUSH2 0x2377 JUMP JUMPDEST PUSH1 0x40 MLOAD DUP1 SWAP2 SUB SWAP1 RETURN JUMPDEST PUSH2 0x1DC PUSH1 0x4 DUP1 CALLDATASIZE SUB DUP2 ADD SWAP1 PUSH2 0x1D7 SWAP2 SWAP1 PUSH2 0x23C5 JUMP JUMPDEST PUSH2 0x1831 JUMP JUMPDEST PUSH1 0x40 MLOAD PUSH2 0x1E9 SWAP2 SWAP1 PUSH2 0x23F2 JUMP JUMPDEST PUSH1 0x40 MLOAD DUP1 SWAP2 SUB SWAP1 RETURN JUMPDEST PUSH2 0x20C PUSH1 0x4 DUP1 CALLDATASIZE SUB DUP2 ADD SWAP1 PUSH2 0x207 SWAP2 SWAP1 PUSH2 0x1DF7 JUMP JUMPDEST PUSH2 0x18DD JUMP JUMPDEST STOP JUMPDEST PUSH2 0x216 PUSH2 0x1AAB JUMP JUMPDEST PUSH1 0x40 MLOAD PUSH2 0x223 SWAP2 SWAP1 PUSH2 0x2414 JUMP JUMPDEST PUSH1 0x40 MLOAD DUP1 SWAP2 SUB SWAP1 RETURN JUMPDEST PUSH1 0x60 PUSH1 0x1 DUP1 SLOAD DUP1 PUSH1 0x20 MUL PUSH1 0x20 ADD PUSH1 0x40 MLOAD SWAP1 DUP2 ADD PUSH1 0x40 MSTORE DUP1 SWAP3 SWAP2 SWAP1 DUP2 DUP2 MSTORE PUSH1 0x20 ADD PUSH1 0x0 SWAP1 JUMPDEST DUP3 DUP3 LT ISZERO PUSH2 0x2FC JUMPI DUP4 DUP3 SWAP1 PUSH1 0x0 MSTORE PUSH1 0x20 PUSH1 0x0 KECCAK256 ADD DUP1 SLOAD PUSH2 0x26F SWAP1 PUSH2 0x245E JUMP JUMPDEST DUP1 PUSH1 0x1F ADD PUSH1 0x20 DUP1 SWAP2 DIV MUL PUSH1 0x20 ADD PUSH1 0x40 MLOAD SWAP1 DUP2 ADD PUSH1 0x40 MSTORE DUP1 SWAP3 SWAP2 SWAP1 DUP2 DUP2 MSTORE PUSH1 0x20 ADD DUP3 DUP1 SLOAD PUSH2 0x29B SWAP1 PUSH2 0x245E JUMP JUMPDEST DUP1 ISZERO PUSH2 0x2E8 JUMPI DUP1 PUSH1 0x1F LT PUSH2 0x2BD JUMPI PUSH2 0x100 DUP1 DUP4 SLOAD DIV MUL DUP4 MSTORE SWAP2 PUSH1 0x20 ADD SWAP2 PUSH2 0x2E8 JUMP JUMPDEST DUP3 ADD SWAP2 SWAP1 PUSH1 0x0 MSTORE PUSH1 0x20 PUSH1 0x0 KECCAK256 SWAP1 JUMPDEST DUP2 SLOAD DUP2 MSTORE SWAP1 PUSH1 0x1 ADD SWAP1 PUSH1 0x20 ADD DUP1 DUP4 GT PUSH2 0x2CB JUMPI DUP3 SWAP1 SUB PUSH1 0x1F AND DUP3 ADD SWAP2 JUMPDEST POP POP POP POP POP DUP2 MSTORE PUSH1 0x20 ADD SWAP1 PUSH1 0x1 ADD SWAP1 PUSH2 0x250 JUMP JUMPDEST POP POP POP POP SWAP1 POP SWAP1 JUMP JUMPDEST DUP1 PUSH1 0x0 DUP1 DUP3 PUSH1 0x40 MLOAD PUSH2 0x317 SWAP2 SWAP1 PUSH2 0x24CB JUMP JUMPDEST SWAP1 DUP2 MSTORE PUSH1 0x20 ADD PUSH1 0x40 MLOAD DUP1 SWAP2 SUB SWAP1 KECCAK256 PUSH1 0x0 ADD DUP1 SLOAD PUSH2 0x333 SWAP1 PUSH2 0x245E JUMP JUMPDEST SWAP1 POP GT PUSH2 0x375 JUMPI PUSH1 0x40 MLOAD PUSH32 0x8C379A000000000000000000000000000000000000000000000000000000000 DUP2 MSTORE PUSH1 0x4 ADD PUSH2 0x36C SWAP1 PUSH2 0x252E JUMP JUMPDEST PUSH1 0x40 MLOAD DUP1 SWAP2 SUB SWAP1 REVERT JUMPDEST DUP2 CALLER PUSH20 0xFFFFFFFFFFFFFFFFFFFFFFFFFFFFFFFFFFFFFFFF AND PUSH1 0x0 DUP3 PUSH1 0x40 MLOAD PUSH2 0x39D SWAP2 SWAP1 PUSH2 0x24CB JUMP JUMPDEST SWAP1 DUP2 MSTORE PUSH1 0x20 ADD PUSH1 0x40 MLOAD DUP1 SWAP2 SUB SWAP1 KECCAK256 PUSH1 0x8 ADD PUSH1 0x0 SWAP1 SLOAD SWAP1 PUSH2 0x100 EXP SWAP1 DIV PUSH20 0xFFFFFFFFFFFFFFFFFFFFFFFFFFFFFFFFFFFFFFFF AND PUSH20 0xFFFFFFFFFFFFFFFFFFFFFFFFFFFFFFFFFFFFFFFF AND EQ PUSH2 0x425 JUMPI PUSH1 0x40 MLOAD PUSH32 0x8C379A000000000000000000000000000000000000000000000000000000000 DUP2 MSTORE PUSH1 0x4 ADD PUSH2 0x41C SWAP1 PUSH2 0x259A JUMP JUMPDEST PUSH1 0x40 MLOAD DUP1 SWAP2 SUB SWAP1 REVERT JUMPDEST PUSH1 0x2 PUSH1 0x0 DUP5 PUSH1 0x40 MLOAD PUSH2 0x437 SWAP2 SWAP1 PUSH2 0x24CB JUMP JUMPDEST SWAP1 DUP2 MSTORE PUSH1 0x20 ADD PUSH1 0x40 MLOAD DUP1 SWAP2 SUB SWAP1 KECCAK256 PUSH1 0x8 ADD PUSH1 0x14 PUSH2 0x100 EXP DUP2 SLOAD DUP2 PUSH1 0xFF MUL NOT AND SWAP1 DUP4 PUSH1 0x5 DUP2 GT ISZERO PUSH2 0x46A JUMPI PUSH2 0x469 PUSH2 0x1ECB JUMP JUMPDEST JUMPDEST MUL OR SWAP1 SSTORE POP TIMESTAMP PUSH1 0x0 DUP5 PUSH1 0x40 MLOAD PUSH2 0x480 SWAP2 SWAP1 PUSH2 0x24CB JUMP JUMPDEST SWAP1 DUP2 MSTORE PUSH1 0x20 ADD PUSH1 0x40 MLOAD DUP1 SWAP2 SUB SWAP1 KECCAK256 PUSH1 0x9 ADD DUP2 SWAP1 SSTORE POP POP POP POP JUMP JUMPDEST PUSH1 0x0 DUP2 DUP1 MLOAD PUSH1 0x20 DUP2 ADD DUP3 ADD DUP1 MLOAD DUP5 DUP3 MSTORE PUSH1 0x20 DUP4 ADD PUSH1 0x20 DUP6 ADD KECCAK256 DUP2 DUP4 MSTORE DUP1 SWAP6 POP POP POP POP POP POP PUSH1 0x0 SWAP2 POP SWAP1 POP DUP1 PUSH1 0x0 ADD DUP1 SLOAD PUSH2 0x4D3 SWAP1 PUSH2 0x245E JUMP JUMPDEST DUP1 PUSH1 0x1F ADD PUSH1 0x20 DUP1 SWAP2 DIV MUL PUSH1 0x20 ADD PUSH1 0x40 MLOAD SWAP1 DUP2 ADD PUSH1 0x40 MSTORE DUP1 SWAP3 SWAP2 SWAP1 DUP2 DUP2 MSTORE PUSH1 0x20 ADD DUP3 DUP1 SLOAD PUSH2 0x4FF SWAP1 PUSH2 0x245E JUMP JUMPDEST DUP1 ISZERO PUSH2 0x54C JUMPI DUP1 PUSH1 0x1F LT PUSH2 0x521 JUMPI PUSH2 0x100 DUP1 DUP4 SLOAD DIV MUL DUP4 MSTORE SWAP2 PUSH1 0x20 ADD SWAP2 PUSH2 0x54C JUMP JUMPDEST DUP3 ADD SWAP2 SWAP1 PUSH1 0x0 MSTORE PUSH1 0x20 PUSH1 0x0 KECCAK256 SWAP1 JUMPDEST DUP2 SLOAD DUP2 MSTORE SWAP1 PUSH1 0x1 ADD SWAP1 PUSH1 0x20 ADD DUP1 DUP4 GT PUSH2 0x52F JUMPI DUP3 SWAP1 SUB PUSH1 0x1F AND DUP3 ADD SWAP2 JUMPDEST POP POP POP POP POP SWAP1 DUP1 PUSH1 0x1 ADD DUP1 SLOAD PUSH2 0x561 SWAP1 PUSH2 0x245E JUMP JUMPDEST DUP1 PUSH1 0x1F ADD PUSH1 0x20 DUP1 SWAP2 DIV MUL PUSH1 0x20 ADD PUSH1 0x40 MLOAD SWAP1 DUP2 ADD PUSH1 0x40 MSTORE DUP1 SWAP3 SWAP2 SWAP1 DUP2 DUP2 MSTORE PUSH1 0x20 ADD DUP3 DUP1 SLOAD PUSH2 0x58D SWAP1 PUSH2 0x245E JUMP JUMPDEST DUP1 ISZERO PUSH2 0x5DA JUMPI DUP1 PUSH1 0x1F LT PUSH2 0x5AF JUMPI PUSH2 0x100 DUP1 DUP4 SLOAD DIV MUL DUP4 MSTORE SWAP2 PUSH1 0x20 ADD SWAP2 PUSH2 0x5DA JUMP JUMPDEST DUP3 ADD SWAP2 SWAP1 PUSH1 0x0 MSTORE PUSH1 0x20 PUSH1 0x0 KECCAK256 SWAP1 JUMPDEST DUP2 SLOAD DUP2 MSTORE SWAP1 PUSH1 0x1 ADD SWAP1 PUSH1 0x20 ADD DUP1 DUP4 GT PUSH2 0x5BD JUMPI DUP3 SWAP1 SUB PUSH1 0x1F AND DUP3 ADD SWAP2 JUMPDEST POP POP POP POP POP SWAP1 DUP1 PUSH1 0x2 ADD DUP1 SLOAD PUSH2 0x5EF SWAP1 PUSH2 0x245E JUMP JUMPDEST DUP1 PUSH1 0x1F ADD PUSH1 0x20 DUP1 SWAP2 DIV MUL PUSH1 0x20 ADD PUSH1 0x40 MLOAD SWAP1 DUP2 ADD PUSH1 0x40 MSTORE DUP1 SWAP3 SWAP2 SWAP1 DUP2 DUP2 MSTORE PUSH1 0x20 ADD DUP3 DUP1 SLOAD PUSH2 0x61B SWAP1 PUSH2 0x245E JUMP JUMPDEST DUP1 ISZERO PUSH2 0x668 JUMPI DUP1 PUSH1 0x1F LT PUSH2 0x63D JUMPI PUSH2 0x100 DUP1 DUP4 SLOAD DIV MUL DUP4 MSTORE SWAP2 PUSH1 0x20 ADD SWAP2 PUSH2 0x668 JUMP JUMPDEST DUP3 ADD SWAP2 SWAP1 PUSH1 0x0 MSTORE PUSH1 0x20 PUSH1 0x0 KECCAK256 SWAP1 JUMPDEST DUP2 SLOAD DUP2 MSTORE SWAP1 PUSH1 0x1 ADD SWAP1 PUSH1 0x20 ADD DUP1 DUP4 GT PUSH2 0x64B JUMPI DUP3 SWAP1 SUB PUSH1 0x1F AND DUP3 ADD SWAP2 JUMPDEST POP POP POP POP POP SWAP1 DUP1 PUSH1 0x3 ADD DUP1 SLOAD PUSH2 0x67D SWAP1 PUSH2 0x245E JUMP JUMPDEST DUP1 PUSH1 0x1F ADD PUSH1 0x20 DUP1 SWAP2 DIV MUL PUSH1 0x20 ADD PUSH1 0x40 MLOAD SWAP1 DUP2 ADD PUSH1 0x40 MSTORE DUP1 SWAP3 SWAP2 SWAP1 DUP2 DUP2 MSTORE PUSH1 0x20 ADD DUP3 DUP1 SLOAD PUSH2 0x6A9 SWAP1 PUSH2 0x245E JUMP JUMPDEST DUP1 ISZERO PUSH2 0x6F6 JUMPI DUP1 PUSH1 0x1F LT PUSH2 0x6CB JUMPI PUSH2 0x100 DUP1 DUP4 SLOAD DIV MUL DUP4 MSTORE SWAP2 PUSH1 0x20 ADD SWAP2 PUSH2 0x6F6 JUMP JUMPDEST DUP3 ADD SWAP2 SWAP1 PUSH1 0x0 MSTORE PUSH1 0x20 PUSH1 0x0 KECCAK256 SWAP1 JUMPDEST DUP2 SLOAD DUP2 MSTORE SWAP1 PUSH1 0x1 ADD SWAP1 PUSH1 0x20 ADD DUP1 DUP4 GT PUSH2 0x6D9 JUMPI DUP3 SWAP1 SUB PUSH1 0x1F AND DUP3 ADD SWAP2 JUMPDEST POP POP POP POP POP SWAP1 DUP1 PUSH1 0x4 ADD DUP1 SLOAD PUSH2 0x70B SWAP1 PUSH2 0x245E JUMP JUMPDEST DUP1 PUSH1 0x1F ADD PUSH1 0x20 DUP1 SWAP2 DIV MUL PUSH1 0x20 ADD PUSH1 0x40 MLOAD SWAP1 DUP2 ADD PUSH1 0x40 MSTORE DUP1 SWAP3 SWAP2 SWAP1 DUP2 DUP2 MSTORE PUSH1 0x20 ADD DUP3 DUP1 SLOAD PUSH2 0x737 SWAP1 PUSH2 0x245E JUMP JUMPDEST DUP1 ISZERO PUSH2 0x784 JUMPI DUP1 PUSH1 0x1F LT PUSH2 0x759 JUMPI PUSH2 0x100 DUP1 DUP4 SLOAD DIV MUL DUP4 MSTORE SWAP2 PUSH1 0x20 ADD SWAP2 PUSH2 0x784 JUMP JUMPDEST DUP3 ADD SWAP2 SWAP1 PUSH1 0x0 MSTORE PUSH1 0x20 PUSH1 0x0 KECCAK256 SWAP1 JUMPDEST DUP2 SLOAD DUP2 MSTORE SWAP1 PUSH1 0x1 ADD SWAP1 PUSH1 0x20 ADD DUP1 DUP4 GT PUSH2 0x767 JUMPI DUP3 SWAP1 SUB PUSH1 0x1F AND DUP3 ADD SWAP2 JUMPDEST POP POP POP POP POP SWAP1 DUP1 PUSH1 0x5 ADD DUP1 SLOAD PUSH2 0x799 SWAP1 PUSH2 0x245E JUMP JUMPDEST DUP1 PUSH1 0x1F ADD PUSH1 0x20 DUP1 SWAP2 DIV MUL PUSH1 0x20 ADD PUSH1 0x40 MLOAD SWAP1 DUP2 ADD PUSH1 0x40 MSTORE DUP1 SWAP3 SWAP2 SWAP1 DUP2 DUP2 MSTORE PUSH1 0x20 ADD DUP3 DUP1 SLOAD PUSH2 0x7C5 SWAP1 PUSH2 0x245E JUMP JUMPDEST DUP1 ISZERO PUSH2 0x812 JUMPI DUP1 PUSH1 0x1F LT PUSH2 0x7E7 JUMPI PUSH2 0x100 DUP1 DUP4 SLOAD DIV MUL DUP4 MSTORE SWAP2 PUSH1 0x20 ADD SWAP2 PUSH2 0x812 JUMP JUMPDEST DUP3 ADD SWAP2 SWAP1 PUSH1 0x0 MSTORE PUSH1 0x20 PUSH1 0x0 KECCAK256 SWAP1 JUMPDEST DUP2 SLOAD DUP2 MSTORE SWAP1 PUSH1 0x1 ADD SWAP1 PUSH1 0x20 ADD DUP1 DUP4 GT PUSH2 0x7F5 JUMPI DUP3 SWAP1 SUB PUSH1 0x1F AND DUP3 ADD SWAP2 JUMPDEST POP POP POP POP POP SWAP1 DUP1 PUSH1 0x6 ADD DUP1 SLOAD PUSH2 0x827 SWAP1 PUSH2 0x245E JUMP JUMPDEST DUP1 PUSH1 0x1F ADD PUSH1 0x20 DUP1 SWAP2 DIV MUL PUSH1 0x20 ADD PUSH1 0x40 MLOAD SWAP1 DUP2 ADD PUSH1 0x40 MSTORE DUP1 SWAP3 SWAP2 SWAP1 DUP2 DUP2 MSTORE PUSH1 0x20 ADD DUP3 DUP1 SLOAD PUSH2 0x853 SWAP1 PUSH2 0x245E JUMP JUMPDEST DUP1 ISZERO PUSH2 0x8A0 JUMPI DUP1 PUSH1 0x1F LT PUSH2 0x875 JUMPI PUSH2 0x100 DUP1 DUP4 SLOAD DIV MUL DUP4 MSTORE SWAP2 PUSH1 0x20 ADD SWAP2 PUSH2 0x8A0 JUMP JUMPDEST DUP3 ADD SWAP2 SWAP1 PUSH1 0x0 MSTORE PUSH1 0x20 PUSH1 0x0 KECCAK256 SWAP1 JUMPDEST DUP2 SLOAD DUP2 MSTORE SWAP1 PUSH1 0x1 ADD SWAP1 PUSH1 0x20 ADD DUP1 DUP4 GT PUSH2 0x883 JUMPI DUP3 SWAP1 SUB PUSH1 0x1F AND DUP3 ADD SWAP2 JUMPDEST POP POP POP POP POP SWAP1 DUP1 PUSH1 0x7 ADD DUP1 SLOAD PUSH2 0x8B5 SWAP1 PUSH2 0x245E JUMP JUMPDEST DUP1 PUSH1 0x1F ADD PUSH1 0x20 DUP1 SWAP2 DIV MUL PUSH1 0x20 ADD PUSH1 0x40 MLOAD SWAP1 DUP2 ADD PUSH1 0x40 MSTORE DUP1 SWAP3 SWAP2 SWAP1 DUP2 DUP2 MSTORE PUSH1 0x20 ADD DUP3 DUP1 SLOAD PUSH2 0x8E1 SWAP1 PUSH2 0x245E JUMP JUMPDEST DUP1 ISZERO PUSH2 0x92E JUMPI DUP1 PUSH1 0x1F LT PUSH2 0x903 JUMPI PUSH2 0x100 DUP1 DUP4 SLOAD DIV MUL DUP4 MSTORE SWAP2 PUSH1 0x20 ADD SWAP2 PUSH2 0x92E JUMP JUMPDEST DUP3 ADD SWAP2 SWAP1 PUSH1 0x0 MSTORE PUSH1 0x20 PUSH1 0x0 KECCAK256 SWAP1 JUMPDEST DUP2 SLOAD DUP2 MSTORE SWAP1 PUSH1 0x1 ADD SWAP1 PUSH1 0x20 ADD DUP1 DUP4 GT PUSH2 0x911 JUMPI DUP3 SWAP1 SUB PUSH1 0x1F AND DUP3 ADD SWAP2 JUMPDEST POP POP POP POP POP SWAP1 DUP1 PUSH1 0x8 ADD PUSH1 0x0 SWAP1 SLOAD SWAP1 PUSH2 0x100 EXP SWAP1 DIV PUSH20 0xFFFFFFFFFFFFFFFFFFFFFFFFFFFFFFFFFFFFFFFF AND SWAP1 DUP1 PUSH1 0x8 ADD PUSH1 0x14 SWAP1 SLOAD SWAP1 PUSH2 0x100 EXP SWAP1 DIV PUSH1 0xFF AND SWAP1 DUP1 PUSH1 0x9 ADD SLOAD SWAP1 POP DUP12 JUMP JUMPDEST PUSH1 0x0 DUP1 DUP8 PUSH1 0x40 MLOAD PUSH2 0x988 SWAP2 SWAP1 PUSH2 0x24CB JUMP JUMPDEST SWAP1 DUP2 MSTORE PUSH1 0x20 ADD PUSH1 0x40 MLOAD DUP1 SWAP2 SUB SWAP1 KECCAK256 PUSH1 0x0 ADD DUP1 SLOAD PUSH2 0x9A4 SWAP1 PUSH2 0x245E JUMP JUMPDEST SWAP1 POP EQ PUSH2 0x9E6 JUMPI PUSH1 0x40 MLOAD PUSH32 0x8C379A000000000000000000000000000000000000000000000000000000000 DUP2 MSTORE PUSH1 0x4 ADD PUSH2 0x9DD SWAP1 PUSH2 0x2606 JUMP JUMPDEST PUSH1 0x40 MLOAD DUP1 SWAP2 SUB SWAP1 REVERT JUMPDEST PUSH1 0x40 MLOAD DUP1 PUSH2 0x160 ADD PUSH1 0x40 MSTORE DUP1 DUP8 DUP2 MSTORE PUSH1 0x20 ADD DUP7 DUP2 MSTORE PUSH1 0x20 ADD DUP6 DUP2 MSTORE PUSH1 0x20 ADD DUP5 DUP2 MSTORE PUSH1 0x20 ADD DUP4 DUP2 MSTORE PUSH1 0x20 ADD DUP3 DUP2 MSTORE PUSH1 0x20 ADD PUSH1 0x40 MLOAD DUP1 PUSH1 0x20 ADD PUSH1 0x40 MSTORE DUP1 PUSH1 0x0 DUP2 MSTORE POP DUP2 MSTORE PUSH1 0x20 ADD PUSH1 0x40 MLOAD DUP1 PUSH1 0x20 ADD PUSH1 0x40 MSTORE DUP1 PUSH1 0x0 DUP2 MSTORE POP DUP2 MSTORE PUSH1 0x20 ADD CALLER PUSH20 0xFFFFFFFFFFFFFFFFFFFFFFFFFFFFFFFFFFFFFFFF AND DUP2 MSTORE PUSH1 0x20 ADD PUSH1 0x0 PUSH1 0x5 DUP2 GT ISZERO PUSH2 0xA70 JUMPI PUSH2 0xA6F PUSH2 0x1ECB JUMP JUMPDEST JUMPDEST DUP2 MSTORE PUSH1 0x20 ADD TIMESTAMP DUP2 MSTORE POP PUSH1 0x0 DUP8 PUSH1 0x40 MLOAD PUSH2 0xA89 SWAP2 SWAP1 PUSH2 0x24CB JUMP JUMPDEST SWAP1 DUP2 MSTORE PUSH1 0x20 ADD PUSH1 0x40 MLOAD DUP1 SWAP2 SUB SWAP1 KECCAK256 PUSH1 0x0 DUP3 ADD MLOAD DUP2 PUSH1 0x0 ADD SWAP1 DUP2 PUSH2 0xAAC SWAP2 SWAP1 PUSH2 0x27D2 JUMP JUMPDEST POP PUSH1 0x20 DUP3 ADD MLOAD DUP2 PUSH1 0x1 ADD SWAP1 DUP2 PUSH2 0xAC2 SWAP2 SWAP1 PUSH2 0x27D2 JUMP JUMPDEST POP PUSH1 0x40 DUP3 ADD MLOAD DUP2 PUSH1 0x2 ADD SWAP1 DUP2 PUSH2 0xAD8 SWAP2 SWAP1 PUSH2 0x27D2 JUMP JUMPDEST POP PUSH1 0x60 DUP3 ADD MLOAD DUP2 PUSH1 0x3 ADD SWAP1 DUP2 PUSH2 0xAEE SWAP2 SWAP1 PUSH2 0x27D2 JUMP JUMPDEST POP PUSH1 0x80 DUP3 ADD MLOAD DUP2 PUSH1 0x4 ADD SWAP1 DUP2 PUSH2 0xB04 SWAP2 SWAP1 PUSH2 0x27D2 JUMP JUMPDEST POP PUSH1 0xA0 DUP3 ADD MLOAD DUP2 PUSH1 0x5 ADD SWAP1 DUP2 PUSH2 0xB1A SWAP2 SWAP1 PUSH2 0x27D2 JUMP JUMPDEST POP PUSH1 0xC0 DUP3 ADD MLOAD DUP2 PUSH1 0x6 ADD SWAP1 DUP2 PUSH2 0xB30 SWAP2 SWAP1 PUSH2 0x27D2 JUMP JUMPDEST POP PUSH1 0xE0 DUP3 ADD MLOAD DUP2 PUSH1 0x7 ADD SWAP1 DUP2 PUSH2 0xB46 SWAP2 SWAP1 PUSH2 0x27D2 JUMP JUMPDEST POP PUSH2 0x100 DUP3 ADD MLOAD DUP2 PUSH1 0x8 ADD PUSH1 0x0 PUSH2 0x100 EXP DUP2 SLOAD DUP2 PUSH20 0xFFFFFFFFFFFFFFFFFFFFFFFFFFFFFFFFFFFFFFFF MUL NOT AND SWAP1 DUP4 PUSH20 0xFFFFFFFFFFFFFFFFFFFFFFFFFFFFFFFFFFFFFFFF AND MUL OR SWAP1 SSTORE POP PUSH2 0x120 DUP3 ADD MLOAD DUP2 PUSH1 0x8 ADD PUSH1 0x14 PUSH2 0x100 EXP DUP2 SLOAD DUP2 PUSH1 0xFF MUL NOT AND SWAP1 DUP4 PUSH1 0x5 DUP2 GT ISZERO PUSH2 0xBBB JUMPI PUSH2 0xBBA PUSH2 0x1ECB JUMP JUMPDEST JUMPDEST MUL OR SWAP1 SSTORE POP PUSH2 0x140 DUP3 ADD MLOAD DUP2 PUSH1 0x9 ADD SSTORE SWAP1 POP POP PUSH1 0x1 DUP7 SWAP1 DUP1 PUSH1 0x1 DUP2 SLOAD ADD DUP1 DUP3 SSTORE DUP1 SWAP2 POP POP PUSH1 0x1 SWAP1 SUB SWAP1 PUSH1 0x0 MSTORE PUSH1 0x20 PUSH1 0x0 KECCAK256 ADD PUSH1 0x0 SWAP1 SWAP2 SWAP1 SWAP2 SWAP1 SWAP2 POP SWAP1 DUP2 PUSH2 0xC02 SWAP2 SWAP1 PUSH2 0x27D2 JUMP JUMPDEST POP PUSH32 0x4208A3BC3099751D24517E70ACE4ECC3EB3F50481B08C03BE86CA1CC4876088 DUP7 DUP7 CALLER TIMESTAMP PUSH1 0x40 MLOAD PUSH2 0xC38 SWAP5 SWAP4 SWAP3 SWAP2 SWAP1 PUSH2 0x28A4 JUMP JUMPDEST PUSH1 0x40 MLOAD DUP1 SWAP2 SUB SWAP1 LOG1 POP POP POP POP POP POP JUMP JUMPDEST DUP3 PUSH1 0x0 DUP1 DUP3 PUSH1 0x40 MLOAD PUSH2 0xC5A SWAP2 SWAP1 PUSH2 0x24CB JUMP JUMPDEST SWAP1 DUP2 MSTORE PUSH1 0x20 ADD PUSH1 0x40 MLOAD DUP1 SWAP2 SUB SWAP1 KECCAK256 PUSH1 0x0 ADD DUP1 SLOAD PUSH2 0xC76 SWAP1 PUSH2 0x245E JUMP JUMPDEST SWAP1 POP GT PUSH2 0xCB8 JUMPI PUSH1 0x40 MLOAD PUSH32 0x8C379A000000000000000000000000000000000000000000000000000000000 DUP2 MSTORE PUSH1 0x4 ADD PUSH2 0xCAF SWAP1 PUSH2 0x252E JUMP JUMPDEST PUSH1 0x40 MLOAD DUP1 SWAP2 SUB SWAP1 REVERT JUMPDEST DUP4 CALLER PUSH20 0xFFFFFFFFFFFFFFFFFFFFFFFFFFFFFFFFFFFFFFFF AND PUSH1 0x0 DUP3 PUSH1 0x40 MLOAD PUSH2 0xCE0 SWAP2 SWAP1 PUSH2 0x24CB JUMP JUMPDEST SWAP1 DUP2 MSTORE PUSH1 0x20 ADD PUSH1 0x40 MLOAD DUP1 SWAP2 SUB SWAP1 KECCAK256 PUSH1 0x8 ADD PUSH1 0x0 SWAP1 SLOAD SWAP1 PUSH2 0x100 EXP SWAP1 DIV PUSH20 0xFFFFFFFFFFFFFFFFFFFFFFFFFFFFFFFFFFFFFFFF AND PUSH20 0xFFFFFFFFFFFFFFFFFFFFFFFFFFFFFFFFFFFFFFFF AND EQ PUSH2 0xD68 JUMPI PUSH1 0x40 MLOAD PUSH32 0x8C379A000000000000000000000000000000000000000000000000000000000 DUP2 MSTORE PUSH1 0x4 ADD PUSH2 0xD5F SWAP1 PUSH2 0x259A JUMP JUMPDEST PUSH1 0x40 MLOAD DUP1 SWAP2 SUB SWAP1 REVERT JUMPDEST PUSH1 0x0 DUP1 DUP7 PUSH1 0x40 MLOAD PUSH2 0xD79 SWAP2 SWAP1 PUSH2 0x24CB JUMP JUMPDEST SWAP1 DUP2 MSTORE PUSH1 0x20 ADD PUSH1 0x40 MLOAD DUP1 SWAP2 SUB SWAP1 KECCAK256 SWAP1 POP DUP5 DUP2 PUSH1 0x6 ADD SWAP1 DUP2 PUSH2 0xD9A SWAP2 SWAP1 PUSH2 0x27D2 JUMP JUMPDEST POP PUSH1 0x1 DUP2 PUSH1 0x8 ADD PUSH1 0x14 PUSH2 0x100 EXP DUP2 SLOAD DUP2 PUSH1 0xFF MUL NOT AND SWAP1 DUP4 PUSH1 0x5 DUP2 GT ISZERO PUSH2 0xDC3 JUMPI PUSH2 0xDC2 PUSH2 0x1ECB JUMP JUMPDEST JUMPDEST MUL OR SWAP1 SSTORE POP PUSH1 0x0 DUP2 PUSH1 0x8 ADD PUSH1 0x0 SWAP1 SLOAD SWAP1 PUSH2 0x100 EXP SWAP1 DIV PUSH20 0xFFFFFFFFFFFFFFFFFFFFFFFFFFFFFFFFFFFFFFFF AND SWAP1 POP DUP5 DUP3 PUSH1 0x8 ADD PUSH1 0x0 PUSH2 0x100 EXP DUP2 SLOAD DUP2 PUSH20 0xFFFFFFFFFFFFFFFFFFFFFFFFFFFFFFFFFFFFFFFF MUL NOT AND SWAP1 DUP4 PUSH20 0xFFFFFFFFFFFFFFFFFFFFFFFFFFFFFFFFFFFFFFFF AND MUL OR SWAP1 SSTORE POP TIMESTAMP DUP3 PUSH1 0x9 ADD DUP2 SWAP1 SSTORE POP PUSH32 0xD3EF4098651D2A212BB9864DFBB715F9C9695ECF7194031A7FD0EC97087801B4 DUP8 DUP8 DUP8 TIMESTAMP PUSH1 0x40 MLOAD PUSH2 0xE72 SWAP5 SWAP4 SWAP3 SWAP2 SWAP1 PUSH2 0x28A4 JUMP JUMPDEST PUSH1 0x40 MLOAD DUP1 SWAP2 SUB SWAP1 LOG1 PUSH32 0xE9BF8DBAA7EB0B6910401512E60AFCAE7734DB09DF0B7291B4A16E630D796E56 DUP8 DUP3 DUP8 TIMESTAMP PUSH1 0x40 MLOAD PUSH2 0xEAF SWAP5 SWAP4 SWAP3 SWAP2 SWAP1 PUSH2 0x28F7 JUMP JUMPDEST PUSH1 0x40 MLOAD DUP1 SWAP2 SUB SWAP1 LOG1 POP POP POP POP POP POP POP JUMP JUMPDEST DUP3 PUSH1 0x0 DUP1 DUP3 PUSH1 0x40 MLOAD PUSH2 0xED2 SWAP2 SWAP1 PUSH2 0x24CB JUMP JUMPDEST SWAP1 DUP2 MSTORE PUSH1 0x20 ADD PUSH1 0x40 MLOAD DUP1 SWAP2 SUB SWAP1 KECCAK256 PUSH1 0x0 ADD DUP1 SLOAD PUSH2 0xEEE SWAP1 PUSH2 0x245E JUMP JUMPDEST SWAP1 POP GT PUSH2 0xF30 JUMPI PUSH1 0x40 MLOAD PUSH32 0x8C379A000000000000000000000000000000000000000000000000000000000 DUP2 MSTORE PUSH1 0x4 ADD PUSH2 0xF27 SWAP1 PUSH2 0x252E JUMP JUMPDEST PUSH1 0x40 MLOAD DUP1 SWAP2 SUB SWAP1 REVERT JUMPDEST DUP4 CALLER PUSH20 0xFFFFFFFFFFFFFFFFFFFFFFFFFFFFFFFFFFFFFFFF AND PUSH1 0x0 DUP3 PUSH1 0x40 MLOAD PUSH2 0xF58 SWAP2 SWAP1 PUSH2 0x24CB JUMP JUMPDEST SWAP1 DUP2 MSTORE PUSH1 0x20 ADD PUSH1 0x40 MLOAD DUP1 SWAP2 SUB SWAP1 KECCAK256 PUSH1 0x8 ADD PUSH1 0x0 SWAP1 SLOAD SWAP1 PUSH2 0x100 EXP SWAP1 DIV PUSH20 0xFFFFFFFFFFFFFFFFFFFFFFFFFFFFFFFFFFFFFFFF AND PUSH20 0xFFFFFFFFFFFFFFFFFFFFFFFFFFFFFFFFFFFFFFFF AND EQ PUSH2 0xFE0 JUMPI PUSH1 0x40 MLOAD PUSH32 0x8C379A000000000000000000000000000000000000000000000000000000000 DUP2 MSTORE PUSH1 0x4 ADD PUSH2 0xFD7 SWAP1 PUSH2 0x259A JUMP JUMPDEST PUSH1 0x40 MLOAD DUP1 SWAP2 SUB SWAP1 REVERT JUMPDEST PUSH1 0x0 DUP1 DUP7 PUSH1 0x40 MLOAD PUSH2 0xFF1 SWAP2 SWAP1 PUSH2 0x24CB JUMP JUMPDEST SWAP1 DUP2 MSTORE PUSH1 0x20 ADD PUSH1 0x40 MLOAD DUP1 SWAP2 SUB SWAP1 KECCAK256 SWAP1 POP DUP5 DUP2 PUSH1 0x7 ADD SWAP1 DUP2 PUSH2 0x1012 SWAP2 SWAP1 PUSH2 0x27D2 JUMP JUMPDEST POP PUSH1 0x3 DUP2 PUSH1 0x8 ADD PUSH1 0x14 PUSH2 0x100 EXP DUP2 SLOAD DUP2 PUSH1 0xFF MUL NOT AND SWAP1 DUP4 PUSH1 0x5 DUP2 GT ISZERO PUSH2 0x103B JUMPI PUSH2 0x103A PUSH2 0x1ECB JUMP JUMPDEST JUMPDEST MUL OR SWAP1 SSTORE POP PUSH1 0x0 DUP2 PUSH1 0x8 ADD PUSH1 0x0 SWAP1 SLOAD SWAP1 PUSH2 0x100 EXP SWAP1 DIV PUSH20 0xFFFFFFFFFFFFFFFFFFFFFFFFFFFFFFFFFFFFFFFF AND SWAP1 POP DUP5 DUP3 PUSH1 0x8 ADD PUSH1 0x0 PUSH2 0x100 EXP DUP2 SLOAD DUP2 PUSH20 0xFFFFFFFFFFFFFFFFFFFFFFFFFFFFFFFFFFFFFFFF MUL NOT AND SWAP1 DUP4 PUSH20 0xFFFFFFFFFFFFFFFFFFFFFFFFFFFFFFFFFFFFFFFF AND MUL OR SWAP1 SSTORE POP TIMESTAMP DUP3 PUSH1 0x9 ADD DUP2 SWAP1 SSTORE POP PUSH32 0xAC779E74D34A836730A9DC649F78C052913F7286C50D3AF009DF8A790A91F57E DUP8 DUP8 DUP8 TIMESTAMP PUSH1 0x40 MLOAD PUSH2 0x10EA SWAP5 SWAP4 SWAP3 SWAP2 SWAP1 PUSH2 0x28A4 JUMP JUMPDEST PUSH1 0x40 MLOAD DUP1 SWAP2 SUB SWAP1 LOG1 PUSH32 0xE9BF8DBAA7EB0B6910401512E60AFCAE7734DB09DF0B7291B4A16E630D796E56 DUP8 DUP3 DUP8 TIMESTAMP PUSH1 0x40 MLOAD PUSH2 0x1127 SWAP5 SWAP4 SWAP3 SWAP2 SWAP1 PUSH2 0x28F7 JUMP JUMPDEST PUSH1 0x40 MLOAD DUP1 SWAP2 SUB SWAP1 LOG1 POP POP POP POP POP POP POP JUMP JUMPDEST DUP1 PUSH1 0x0 DUP1 DUP3 PUSH1 0x40 MLOAD PUSH2 0x114A SWAP2 SWAP1 PUSH2 0x24CB JUMP JUMPDEST SWAP1 DUP2 MSTORE PUSH1 0x20 ADD PUSH1 0x40 MLOAD DUP1 SWAP2 SUB SWAP1 KECCAK256 PUSH1 0x0 ADD DUP1 SLOAD PUSH2 0x1166 SWAP1 PUSH2 0x245E JUMP JUMPDEST SWAP1 POP GT PUSH2 0x11A8 JUMPI PUSH1 0x40 MLOAD PUSH32 0x8C379A000000000000000000000000000000000000000000000000000000000 DUP2 MSTORE PUSH1 0x4 ADD PUSH2 0x119F SWAP1 PUSH2 0x252E JUMP JUMPDEST PUSH1 0x40 MLOAD DUP1 SWAP2 SUB SWAP1 REVERT JUMPDEST DUP2 CALLER PUSH20 0xFFFFFFFFFFFFFFFFFFFFFFFFFFFFFFFFFFFFFFFF AND PUSH1 0x0 DUP3 PUSH1 0x40 MLOAD PUSH2 0x11D0 SWAP2 SWAP1 PUSH2 0x24CB JUMP JUMPDEST SWAP1 DUP2 MSTORE PUSH1 0x20 ADD PUSH1 0x40 MLOAD DUP1 SWAP2 SUB SWAP1 KECCAK256 PUSH1 0x8 ADD PUSH1 0x0 SWAP1 SLOAD SWAP1 PUSH2 0x100 EXP SWAP1 DIV PUSH20 0xFFFFFFFFFFFFFFFFFFFFFFFFFFFFFFFFFFFFFFFF AND PUSH20 0xFFFFFFFFFFFFFFFFFFFFFFFFFFFFFFFFFFFFFFFF AND EQ PUSH2 0x1258 JUMPI PUSH1 0x40 MLOAD PUSH32 0x8C379A000000000000000000000000000000000000000000000000000000000 DUP2 MSTORE PUSH1 0x4 ADD PUSH2 0x124F SWAP1 PUSH2 0x259A JUMP JUMPDEST PUSH1 0x40 MLOAD DUP1 SWAP2 SUB SWAP1 REVERT JUMPDEST PUSH1 0x4 PUSH1 0x0 DUP5 PUSH1 0x40 MLOAD PUSH2 0x126A SWAP2 SWAP1 PUSH2 0x24CB JUMP JUMPDEST SWAP1 DUP2 MSTORE PUSH1 0x20 ADD PUSH1 0x40 MLOAD DUP1 SWAP2 SUB SWAP1 KECCAK256 PUSH1 0x8 ADD PUSH1 0x14 PUSH2 0x100 EXP DUP2 SLOAD DUP2 PUSH1 0xFF MUL NOT AND SWAP1 DUP4 PUSH1 0x5 DUP2 GT ISZERO PUSH2 0x129D JUMPI PUSH2 0x129C PUSH2 0x1ECB JUMP JUMPDEST JUMPDEST MUL OR SWAP1 SSTORE POP TIMESTAMP PUSH1 0x0 DUP5 PUSH1 0x40 MLOAD PUSH2 0x12B3 SWAP2 SWAP1 PUSH2 0x24CB JUMP JUMPDEST SWAP1 DUP2 MSTORE PUSH1 0x20 ADD PUSH1 0x40 MLOAD DUP1 SWAP2 SUB SWAP1 KECCAK256 PUSH1 0x9 ADD DUP2 SWAP1 SSTORE POP POP POP POP JUMP JUMPDEST PUSH2 0x12D5 PUSH2 0x1AB8 JUMP JUMPDEST PUSH1 0x0 DUP3 PUSH1 0x40 MLOAD PUSH2 0x12E5 SWAP2 SWAP1 PUSH2 0x24CB JUMP JUMPDEST SWAP1 DUP2 MSTORE PUSH1 0x20 ADD PUSH1 0x40 MLOAD DUP1 SWAP2 SUB SWAP1 KECCAK256 PUSH1 0x40 MLOAD DUP1 PUSH2 0x160 ADD PUSH1 0x40 MSTORE SWAP1 DUP2 PUSH1 0x0 DUP3 ADD DUP1 SLOAD PUSH2 0x130F SWAP1 PUSH2 0x245E JUMP JUMPDEST DUP1 PUSH1 0x1F ADD PUSH1 0x20 DUP1 SWAP2 DIV MUL PUSH1 0x20 ADD PUSH1 0x40 MLOAD SWAP1 DUP2 ADD PUSH1 0x40 MSTORE DUP1 SWAP3 SWAP2 SWAP1 DUP2 DUP2 MSTORE PUSH1 0x20 ADD DUP3 DUP1 SLOAD PUSH2 0x133B SWAP1 PUSH2 0x245E JUMP JUMPDEST DUP1 ISZERO PUSH2 0x1388 JUMPI DUP1 PUSH1 0x1F LT PUSH2 0x135D JUMPI PUSH2 0x100 DUP1 DUP4 SLOAD DIV MUL DUP4 MSTORE SWAP2 PUSH1 0x20 ADD SWAP2 PUSH2 0x1388 JUMP JUMPDEST DUP3 ADD SWAP2 SWAP1 PUSH1 0x0 MSTORE PUSH1 0x20 PUSH1 0x0 KECCAK256 SWAP1 JUMPDEST DUP2 SLOAD DUP2 MSTORE SWAP1 PUSH1 0x1 ADD SWAP1 PUSH1 0x20 ADD DUP1 DUP4 GT PUSH2 0x136B JUMPI DUP3 SWAP1 SUB PUSH1 0x1F AND DUP3 ADD SWAP2 JUMPDEST POP POP POP POP POP DUP2 MSTORE PUSH1 0x20 ADD PUSH1 0x1 DUP3 ADD DUP1 SLOAD PUSH2 0x13A1 SWAP1 PUSH2 0x245E JUMP JUMPDEST DUP1 PUSH1 0x1F ADD PUSH1 0x20 DUP1 SWAP2 DIV MUL PUSH1 0x20 ADD PUSH1 0x40 MLOAD SWAP1 DUP2 ADD PUSH1 0x40 MSTORE DUP1 SWAP3 SWAP2 SWAP1 DUP2 DUP2 MSTORE PUSH1 0x20 ADD DUP3 DUP1 SLOAD PUSH2 0x13CD SWAP1 PUSH2 0x245E JUMP JUMPDEST DUP1 ISZERO PUSH2 0x141A JUMPI DUP1 PUSH1 0x1F LT PUSH2 0x13EF JUMPI PUSH2 0x100 DUP1 DUP4 SLOAD DIV MUL DUP4 MSTORE SWAP2 PUSH1 0x20 ADD SWAP2 PUSH2 0x141A JUMP JUMPDEST DUP3 ADD SWAP2 SWAP1 PUSH1 0x0 MSTORE PUSH1 0x20 PUSH1 0x0 KECCAK256 SWAP1 JUMPDEST DUP2 SLOAD DUP2 MSTORE SWAP1 PUSH1 0x1 ADD SWAP1 PUSH1 0x20 ADD DUP1 DUP4 GT PUSH2 0x13FD JUMPI DUP3 SWAP1 SUB PUSH1 0x1F AND DUP3 ADD SWAP2 JUMPDEST POP POP POP POP POP DUP2 MSTORE PUSH1 0x20 ADD PUSH1 0x2 DUP3 ADD DUP1 SLOAD PUSH2 0x1433 SWAP1 PUSH2 0x245E JUMP JUMPDEST DUP1 PUSH1 0x1F ADD PUSH1 0x20 DUP1 SWAP2 DIV MUL PUSH1 0x20 ADD PUSH1 0x40 MLOAD SWAP1 DUP2 ADD PUSH1 0x40 MSTORE DUP1 SWAP3 SWAP2 SWAP1 DUP2 DUP2 MSTORE PUSH1 0x20 ADD DUP3 DUP1 SLOAD PUSH2 0x145F SWAP1 PUSH2 0x245E JUMP JUMPDEST DUP1 ISZERO PUSH2 0x14AC JUMPI DUP1 PUSH1 0x1F LT PUSH2 0x1481 JUMPI PUSH2 0x100 DUP1 DUP4 SLOAD DIV MUL DUP4 MSTORE SWAP2 PUSH1 0x20 ADD SWAP2 PUSH2 0x14AC JUMP JUMPDEST DUP3 ADD SWAP2 SWAP1 PUSH1 0x0 MSTORE PUSH1 0x20 PUSH1 0x0 KECCAK256 SWAP1 JUMPDEST DUP2 SLOAD DUP2 MSTORE SWAP1 PUSH1 0x1 ADD SWAP1 PUSH1 0x20 ADD DUP1 DUP4 GT PUSH2 0x148F JUMPI DUP3 SWAP1 SUB PUSH1 0x1F AND DUP3 ADD SWAP2 JUMPDEST POP POP POP POP POP DUP2 MSTORE PUSH1 0x20 ADD PUSH1 0x3 DUP3 ADD DUP1 SLOAD PUSH2 0x14C5 SWAP1 PUSH2 0x245E JUMP JUMPDEST DUP1 PUSH1 0x1F ADD PUSH1 0x20 DUP1 SWAP2 DIV MUL PUSH1 0x20 ADD PUSH1 0x40 MLOAD SWAP1 DUP2 ADD PUSH1 0x40 MSTORE DUP1 SWAP3 SWAP2 SWAP1 DUP2 DUP2 MSTORE PUSH1 0x20 ADD DUP3 DUP1 SLOAD PUSH2 0x14F1 SWAP1 PUSH2 0x245E JUMP JUMPDEST DUP1 ISZERO PUSH2 0x153E JUMPI DUP1 PUSH1 0x1F LT PUSH2 0x1513 JUMPI PUSH2 0x100 DUP1 DUP4 SLOAD DIV MUL DUP4 MSTORE SWAP2 PUSH1 0x20 ADD SWAP2 PUSH2 0x153E JUMP JUMPDEST DUP3 ADD SWAP2 SWAP1 PUSH1 0x0 MSTORE PUSH1 0x20 PUSH1 0x0 KECCAK256 SWAP1 JUMPDEST DUP2 SLOAD DUP2 MSTORE SWAP1 PUSH1 0x1 ADD SWAP1 PUSH1 0x20 ADD DUP1 DUP4 GT PUSH2 0x1521 JUMPI DUP3 SWAP1 SUB PUSH1 0x1F AND DUP3 ADD SWAP2 JUMPDEST POP POP POP POP POP DUP2 MSTORE PUSH1 0x20 ADD PUSH1 0x4 DUP3 ADD DUP1 SLOAD PUSH2 0x1557 SWAP1 PUSH2 0x245E JUMP JUMPDEST DUP1 PUSH1 0x1F ADD PUSH1 0x20 DUP1 SWAP2 DIV MUL PUSH1 0x20 ADD PUSH1 0x40 MLOAD SWAP1 DUP2 ADD PUSH1 0x40 MSTORE DUP1 SWAP3 SWAP2 SWAP1 DUP2 DUP2 MSTORE PUSH1 0x20 ADD DUP3 DUP1 SLOAD PUSH2 0x1583 SWAP1 PUSH2 0x245E JUMP JUMPDEST DUP1 ISZERO PUSH2 0x15D0 JUMPI DUP1 PUSH1 0x1F LT PUSH2 0x15A5 JUMPI PUSH2 0x100 DUP1 DUP4 SLOAD DIV MUL DUP4 MSTORE SWAP2 PUSH1 0x20 ADD SWAP2 PUSH2 0x15D0 JUMP JUMPDEST DUP3 ADD SWAP2 SWAP1 PUSH1 0x0 MSTORE PUSH1 0x20 PUSH1 0x0 KECCAK256 SWAP1 JUMPDEST DUP2 SLOAD DUP2 MSTORE SWAP1 PUSH1 0x1 ADD SWAP1 PUSH1 0x20 ADD DUP1 DUP4 GT PUSH2 0x15B3 JUMPI DUP3 SWAP1 SUB PUSH1 0x1F AND DUP3 ADD SWAP2 JUMPDEST POP POP POP POP POP DUP2 MSTORE PUSH1 0x20 ADD PUSH1 0x5 DUP3 ADD DUP1 SLOAD PUSH2 0x15E9 SWAP1 PUSH2 0x245E JUMP JUMPDEST DUP1 PUSH1 0x1F ADD PUSH1 0x20 DUP1 SWAP2 DIV MUL PUSH1 0x20 ADD PUSH1 0x40 MLOAD SWAP1 DUP2 ADD PUSH1 0x40 MSTORE DUP1 SWAP3 SWAP2 SWAP1 DUP2 DUP2 MSTORE PUSH1 0x20 ADD DUP3 DUP1 SLOAD PUSH2 0x1615 SWAP1 PUSH2 0x245E JUMP JUMPDEST DUP1 ISZERO PUSH2 0x1662 JUMPI DUP1 PUSH1 0x1F LT PUSH2 0x1637 JUMPI PUSH2 0x100 DUP1 DUP4 SLOAD DIV MUL DUP4 MSTORE SWAP2 PUSH1 0x20 ADD SWAP2 PUSH2 0x1662 JUMP JUMPDEST DUP3 ADD SWAP2 SWAP1 PUSH1 0x0 MSTORE PUSH1 0x20 PUSH1 0x0 KECCAK256 SWAP1 JUMPDEST DUP2 SLOAD DUP2 MSTORE SWAP1 PUSH1 0x1 ADD SWAP1 PUSH1 0x20 ADD DUP1 DUP4 GT PUSH2 0x1645 JUMPI DUP3 SWAP1 SUB PUSH1 0x1F AND DUP3 ADD SWAP2 JUMPDEST POP POP POP POP POP DUP2 MSTORE PUSH1 0x20 ADD PUSH1 0x6 DUP3 ADD DUP1 SLOAD PUSH2 0x167B SWAP1 PUSH2 0x245E JUMP JUMPDEST DUP1 PUSH1 0x1F ADD PUSH1 0x20 DUP1 SWAP2 DIV MUL PUSH1 0x20 ADD PUSH1 0x40 MLOAD SWAP1 DUP2 ADD PUSH1 0x40 MSTORE DUP1 SWAP3 SWAP2 SWAP1 DUP2 DUP2 MSTORE PUSH1 0x20 ADD DUP3 DUP1 SLOAD PUSH2 0x16A7 SWAP1 PUSH2 0x245E JUMP JUMPDEST DUP1 ISZERO PUSH2 0x16F4 JUMPI DUP1 PUSH1 0x1F LT PUSH2 0x16C9 JUMPI PUSH2 0x100 DUP1 DUP4 SLOAD DIV MUL DUP4 MSTORE SWAP2 PUSH1 0x20 ADD SWAP2 PUSH2 0x16F4 JUMP JUMPDEST DUP3 ADD SWAP2 SWAP1 PUSH1 0x0 MSTORE PUSH1 0x20 PUSH1 0x0 KECCAK256 SWAP1 JUMPDEST DUP2 SLOAD DUP2 MSTORE SWAP1 PUSH1 0x1 ADD SWAP1 PUSH1 0x20 ADD DUP1 DUP4 GT PUSH2 0x16D7 JUMPI DUP3 SWAP1 SUB PUSH1 0x1F AND DUP3 ADD SWAP2 JUMPDEST POP POP POP POP POP DUP2 MSTORE PUSH1 0x20 ADD PUSH1 0x7 DUP3 ADD DUP1 SLOAD PUSH2 0x170D SWAP1 PUSH2 0x245E JUMP JUMPDEST DUP1 PUSH1 0x1F ADD PUSH1 0x20 DUP1 SWAP2 DIV MUL PUSH1 0x20 ADD PUSH1 0x40 MLOAD SWAP1 DUP2 ADD PUSH1 0x40 MSTORE DUP1 SWAP3 SWAP2 SWAP1 DUP2 DUP2 MSTORE PUSH1 0x20 ADD DUP3 DUP1 SLOAD PUSH2 0x1739 SWAP1 PUSH2 0x245E JUMP JUMPDEST DUP1 ISZERO PUSH2 0x1786 JUMPI DUP1 PUSH1 0x1F LT PUSH2 0x175B JUMPI PUSH2 0x100 DUP1 DUP4 SLOAD DIV MUL DUP4 MSTORE SWAP2 PUSH1 0x20 ADD SWAP2 PUSH2 0x1786 JUMP JUMPDEST DUP3 ADD SWAP2 SWAP1 PUSH1 0x0 MSTORE PUSH1 0x20 PUSH1 0x0 KECCAK256 SWAP1 JUMPDEST DUP2 SLOAD DUP2 MSTORE SWAP1 PUSH1 0x1 ADD SWAP1 PUSH1 0x20 ADD DUP1 DUP4 GT PUSH2 0x1769 JUMPI DUP3 SWAP1 SUB PUSH1 0x1F AND DUP3 ADD SWAP2 JUMPDEST POP POP POP POP POP DUP2 MSTORE PUSH1 0x20 ADD PUSH1 0x8 DUP3 ADD PUSH1 0x0 SWAP1 SLOAD SWAP1 PUSH2 0x100 EXP SWAP1 DIV PUSH20 0xFFFFFFFFFFFFFFFFFFFFFFFFFFFFFFFFFFFFFFFF AND PUSH20 0xFFFFFFFFFFFFFFFFFFFFFFFFFFFFFFFFFFFFFFFF AND PUSH20 0xFFFFFFFFFFFFFFFFFFFFFFFFFFFFFFFFFFFFFFFF AND DUP2 MSTORE PUSH1 0x20 ADD PUSH1 0x8 DUP3 ADD PUSH1 0x14 SWAP1 SLOAD SWAP1 PUSH2 0x100 EXP SWAP1 DIV PUSH1 0xFF AND PUSH1 0x5 DUP2 GT ISZERO PUSH2 0x180A JUMPI PUSH2 0x1809 PUSH2 0x1ECB JUMP JUMPDEST JUMPDEST PUSH1 0x5 DUP2 GT ISZERO PUSH2 0x181C JUMPI PUSH2 0x181B PUSH2 0x1ECB JUMP JUMPDEST JUMPDEST DUP2 MSTORE PUSH1 0x20 ADD PUSH1 0x9 DUP3 ADD SLOAD DUP2 MSTORE POP POP SWAP1 POP SWAP2 SWAP1 POP JUMP JUMPDEST PUSH1 0x1 DUP2 DUP2 SLOAD DUP2 LT PUSH2 0x1841 JUMPI PUSH1 0x0 DUP1 REVERT JUMPDEST SWAP1 PUSH1 0x0 MSTORE PUSH1 0x20 PUSH1 0x0 KECCAK256 ADD PUSH1 0x0 SWAP2 POP SWAP1 POP DUP1 SLOAD PUSH2 0x185C SWAP1 PUSH2 0x245E JUMP JUMPDEST DUP1 PUSH1 0x1F ADD PUSH1 0x20 DUP1 SWAP2 DIV MUL PUSH1 0x20 ADD PUSH1 0x40 MLOAD SWAP1 DUP2 ADD PUSH1 0x40 MSTORE DUP1 SWAP3 SWAP2 SWAP1 DUP2 DUP2 MSTORE PUSH1 0x20 ADD DUP3 DUP1 SLOAD PUSH2 0x1888 SWAP1 PUSH2 0x245E JUMP JUMPDEST DUP1 ISZERO PUSH2 0x18D5 JUMPI DUP1 PUSH1 0x1F LT PUSH2 0x18AA JUMPI PUSH2 0x100 DUP1 DUP4 SLOAD DIV MUL DUP4 MSTORE SWAP2 PUSH1 0x20 ADD SWAP2 PUSH2 0x18D5 JUMP JUMPDEST DUP3 ADD SWAP2 SWAP1 PUSH1 0x0 MSTORE PUSH1 0x20 PUSH1 0x0 KECCAK256 SWAP1 JUMPDEST DUP2 SLOAD DUP2 MSTORE SWAP1 PUSH1 0x1 ADD SWAP1 PUSH1 0x20 ADD DUP1 DUP4 GT PUSH2 0x18B8 JUMPI DUP3 SWAP1 SUB PUSH1 0x1F AND DUP3 ADD SWAP2 JUMPDEST POP POP POP POP POP DUP2 JUMP JUMPDEST DUP1 PUSH1 0x0 DUP1 DUP3 PUSH1 0x40 MLOAD PUSH2 0x18EF SWAP2 SWAP1 PUSH2 0x24CB JUMP JUMPDEST SWAP1 DUP2 MSTORE PUSH1 0x20 ADD PUSH1 0x40 MLOAD DUP1 SWAP2 SUB SWAP1 KECCAK256 PUSH1 0x0 ADD DUP1 SLOAD PUSH2 0x190B SWAP1 PUSH2 0x245E JUMP JUMPDEST SWAP1 POP GT PUSH2 0x194D JUMPI PUSH1 0x40 MLOAD PUSH32 0x8C379A000000000000000000000000000000000000000000000000000000000 DUP2 MSTORE PUSH1 0x4 ADD PUSH2 0x1944 SWAP1 PUSH2 0x252E JUMP JUMPDEST PUSH1 0x40 MLOAD DUP1 SWAP2 SUB SWAP1 REVERT JUMPDEST DUP2 CALLER PUSH20 0xFFFFFFFFFFFFFFFFFFFFFFFFFFFFFFFFFFFFFFFF AND PUSH1 0x0 DUP3 PUSH1 0x40 MLOAD PUSH2 0x1975 SWAP2 SWAP1 PUSH2 0x24CB JUMP JUMPDEST SWAP1 DUP2 MSTORE PUSH1 0x20 ADD PUSH1 0x40 MLOAD DUP1 SWAP2 SUB SWAP1 KECCAK256 PUSH1 0x8 ADD PUSH1 0x0 SWAP1 SLOAD SWAP1 PUSH2 0x100 EXP SWAP1 DIV PUSH20 0xFFFFFFFFFFFFFFFFFFFFFFFFFFFFFFFFFFFFFFFF AND PUSH20 0xFFFFFFFFFFFFFFFFFFFFFFFFFFFFFFFFFFFFFFFF AND EQ PUSH2 0x19FD JUMPI PUSH1 0x40 MLOAD PUSH32 0x8C379A000000000000000000000000000000000000000000000000000000000 DUP2 MSTORE PUSH1 0x4 ADD PUSH2 0x19F4 SWAP1 PUSH2 0x259A JUMP JUMPDEST PUSH1 0x40 MLOAD DUP1 SWAP2 SUB SWAP1 REVERT JUMPDEST PUSH1 0x5 PUSH1 0x0 DUP5 PUSH1 0x40 MLOAD PUSH2 0x1A0F SWAP2 SWAP1 PUSH2 0x24CB JUMP JUMPDEST SWAP1 DUP2 MSTORE PUSH1 0x20 ADD PUSH1 0x40 MLOAD DUP1 SWAP2 SUB SWAP1 KECCAK256 PUSH1 0x8 ADD PUSH1 0x14 PUSH2 0x100 EXP DUP2 SLOAD DUP2 PUSH1 0xFF MUL NOT AND SWAP1 DUP4 PUSH1 0x5 DUP2 GT ISZERO PUSH2 0x1A42 JUMPI PUSH2 0x1A41 PUSH2 0x1ECB JUMP JUMPDEST JUMPDEST MUL OR SWAP1 SSTORE POP TIMESTAMP PUSH1 0x0 DUP5 PUSH1 0x40 MLOAD PUSH2 0x1A58 SWAP2 SWAP1 PUSH2 0x24CB JUMP JUMPDEST SWAP1 DUP2 MSTORE PUSH1 0x20 ADD PUSH1 0x40 MLOAD DUP1 SWAP2 SUB SWAP1 KECCAK256 PUSH1 0x9 ADD DUP2 SWAP1 SSTORE POP PUSH32 0x77901E18E90543DA6C897C086E6FA8A68F294F4F6E448157330B6067740B9848 DUP4 TIMESTAMP PUSH1 0x40 MLOAD PUSH2 0x1A9E SWAP3 SWAP2 SWAP1 PUSH2 0x2943 JUMP JUMPDEST PUSH1 0x40 MLOAD DUP1 SWAP2 SUB SWAP1 LOG1 POP POP POP JUMP JUMPDEST PUSH1 0x0 PUSH1 0x1 DUP1 SLOAD SWAP1 POP SWAP1 POP SWAP1 JUMP JUMPDEST PUSH1 0x40 MLOAD DUP1 PUSH2 0x160 ADD PUSH1 0x40 MSTORE DUP1 PUSH1 0x60 DUP2 MSTORE PUSH1 0x20 ADD PUSH1 0x60 DUP2 MSTORE PUSH1 0x20 ADD PUSH1 0x60 DUP2 MSTORE PUSH1 0x20 ADD PUSH1 0x60 DUP2 MSTORE PUSH1 0x20 ADD PUSH1 0x60 DUP2 MSTORE PUSH1 0x20 ADD PUSH1 0x60 DUP2 MSTORE PUSH1 0x20 ADD PUSH1 0x60 DUP2 MSTORE PUSH1 0x20 ADD PUSH1 0x60 DUP2 MSTORE PUSH1 0x20 ADD PUSH1 0x0 PUSH20 0xFFFFFFFFFFFFFFFFFFFFFFFFFFFFFFFFFFFFFFFF AND DUP2 MSTORE PUSH1 0x20 ADD PUSH1 0x0 PUSH1 0x5 DUP2 GT ISZERO PUSH2 0x1B2D JUMPI PUSH2 0x1B2C PUSH2 0x1ECB JUMP JUMPDEST JUMPDEST DUP2 MSTORE PUSH1 0x20 ADD PUSH1 0x0 DUP2 MSTORE POP SWAP1 JUMP JUMPDEST PUSH1 0x0 DUP2 MLOAD SWAP1 POP SWAP2 SWAP1 POP JUMP JUMPDEST PUSH1 0x0 DUP3 DUP3 MSTORE PUSH1 0x20 DUP3 ADD SWAP1 POP SWAP3 SWAP2 POP POP JUMP JUMPDEST PUSH1 0x0 DUP2 SWAP1 POP PUSH1 0x20 DUP3 ADD SWAP1 POP SWAP2 SWAP1 POP JUMP JUMPDEST PUSH1 0x0 DUP2 MLOAD SWAP1 POP SWAP2 SWAP1 POP JUMP JUMPDEST PUSH1 0x0 DUP3 DUP3 MSTORE PUSH1 0x20 DUP3 ADD SWAP1 POP SWAP3 SWAP2 POP POP JUMP JUMPDEST PUSH1 0x0 JUMPDEST DUP4 DUP2 LT ISZERO PUSH2 0x1BA0 JUMPI DUP1 DUP3 ADD MLOAD DUP2 DUP5 ADD MSTORE PUSH1 0x20 DUP2 ADD SWAP1 POP PUSH2 0x1B85 JUMP JUMPDEST PUSH1 0x0 DUP5 DUP5 ADD MSTORE POP POP POP POP JUMP JUMPDEST PUSH1 0x0 PUSH1 0x1F NOT PUSH1 0x1F DUP4 ADD AND SWAP1 POP SWAP2 SWAP1 POP JUMP JUMPDEST PUSH1 0x0 PUSH2 0x1BC8 DUP3 PUSH2 0x1B66 JUMP JUMPDEST PUSH2 0x1BD2 DUP2 DUP6 PUSH2 0x1B71 JUMP JUMPDEST SWAP4 POP PUSH2 0x1BE2 DUP2 DUP6 PUSH1 0x20 DUP7 ADD PUSH2 0x1B82 JUMP JUMPDEST PUSH2 0x1BEB DUP2 PUSH2 0x1BAC JUMP JUMPDEST DUP5 ADD SWAP2 POP POP SWAP3 SWAP2 POP POP JUMP JUMPDEST PUSH1 0x0 PUSH2 0x1C02 DUP4 DUP4 PUSH2 0x1BBD JUMP JUMPDEST SWAP1 POP SWAP3 SWAP2 POP POP JUMP JUMPDEST PUSH1 0x0 PUSH1 0x20 DUP3 ADD SWAP1 POP SWAP2 SWAP1 POP JUMP JUMPDEST PUSH1 0x0 PUSH2 0x1C22 DUP3 PUSH2 0x1B3A JUMP JUMPDEST PUSH2 0x1C2C DUP2 DUP6 PUSH2 0x1B45 JUMP JUMPDEST SWAP4 POP DUP4 PUSH1 0x20 DUP3 MUL DUP6 ADD PUSH2 0x1C3E DUP6 PUSH2 0x1B56 JUMP JUMPDEST DUP1 PUSH1 0x0 JUMPDEST DUP6 DUP2 LT ISZERO PUSH2 0x1C7A JUMPI DUP5 DUP5 SUB DUP10 MSTORE DUP2 MLOAD PUSH2 0x1C5B DUP6 DUP3 PUSH2 0x1BF6 JUMP JUMPDEST SWAP5 POP PUSH2 0x1C66 DUP4 PUSH2 0x1C0A JUMP JUMPDEST SWAP3 POP PUSH1 0x20 DUP11 ADD SWAP10 POP POP PUSH1 0x1 DUP2 ADD SWAP1 POP PUSH2 0x1C42 JUMP JUMPDEST POP DUP3 SWAP8 POP DUP8 SWAP6 POP POP POP POP POP POP SWAP3 SWAP2 POP POP JUMP JUMPDEST PUSH1 0x0 PUSH1 0x20 DUP3 ADD SWAP1 POP DUP2 DUP2 SUB PUSH1 0x0 DUP4 ADD MSTORE PUSH2 0x1CA6 DUP2 DUP5 PUSH2 0x1C17 JUMP JUMPDEST SWAP1 POP SWAP3 SWAP2 POP POP JUMP JUMPDEST PUSH1 0x0 PUSH1 0x40 MLOAD SWAP1 POP SWAP1 JUMP JUMPDEST PUSH1 0x0 DUP1 REVERT JUMPDEST PUSH1 0x0 DUP1 REVERT JUMPDEST PUSH1 0x0 DUP1 REVERT JUMPDEST PUSH1 0x0 DUP1 REVERT JUMPDEST PUSH32 0x4E487B7100000000000000000000000000000000000000000000000000000000 PUSH1 0x0 MSTORE PUSH1 0x41 PUSH1 0x4 MSTORE PUSH1 0x24 PUSH1 0x0 REVERT JUMPDEST PUSH2 0x1D04 DUP3 PUSH2 0x1BAC JUMP JUMPDEST DUP2 ADD DUP2 DUP2 LT PUSH8 0xFFFFFFFFFFFFFFFF DUP3 GT OR ISZERO PUSH2 0x1D23 JUMPI PUSH2 0x1D22 PUSH2 0x1CCC JUMP JUMPDEST JUMPDEST DUP1 PUSH1 0x40 MSTORE POP POP POP JUMP JUMPDEST PUSH1 0x0 PUSH2 0x1D36 PUSH2 0x1CAE JUMP JUMPDEST SWAP1 POP PUSH2 0x1D42 DUP3 DUP3 PUSH2 0x1CFB JUMP JUMPDEST SWAP2 SWAP1 POP JUMP JUMPDEST PUSH1 0x0 PUSH8 0xFFFFFFFFFFFFFFFF DUP3 GT ISZERO PUSH2 0x1D62 JUMPI PUSH2 0x1D61 PUSH2 0x1CCC JUMP JUMPDEST JUMPDEST PUSH2 0x1D6B DUP3 PUSH2 0x1BAC JUMP JUMPDEST SWAP1 POP PUSH1 0x20 DUP2 ADD SWAP1 POP SWAP2 SWAP1 POP JUMP JUMPDEST DUP3 DUP2 DUP4 CALLDATACOPY PUSH1 0x0 DUP4 DUP4 ADD MSTORE POP POP POP JUMP JUMPDEST PUSH1 0x0 PUSH2 0x1D9A PUSH2 0x1D95 DUP5 PUSH2 0x1D47 JUMP JUMPDEST PUSH2 0x1D2C JUMP JUMPDEST SWAP1 POP DUP3 DUP2 MSTORE PUSH1 0x20 DUP2 ADD DUP5 DUP5 DUP5 ADD GT ISZERO PUSH2 0x1DB6 JUMPI PUSH2 0x1DB5 PUSH2 0x1CC7 JUMP JUMPDEST JUMPDEST PUSH2 0x1DC1 DUP5 DUP3 DUP6 PUSH2 0x1D78 JUMP JUMPDEST POP SWAP4 SWAP3 POP POP POP JUMP JUMPDEST PUSH1 0x0 DUP3 PUSH1 0x1F DUP4 ADD SLT PUSH2 0x1DDE JUMPI PUSH2 0x1DDD PUSH2 0x1CC2 JUMP JUMPDEST JUMPDEST DUP2 CALLDATALOAD PUSH2 0x1DEE DUP5 DUP3 PUSH1 0x20 DUP7 ADD PUSH2 0x1D87 JUMP JUMPDEST SWAP2 POP POP SWAP3 SWAP2 POP POP JUMP JUMPDEST PUSH1 0x0 PUSH1 0x20 DUP3 DUP5 SUB SLT ISZERO PUSH2 0x1E0D JUMPI PUSH2 0x1E0C PUSH2 0x1CB8 JUMP JUMPDEST JUMPDEST PUSH1 0x0 DUP3 ADD CALLDATALOAD PUSH8 0xFFFFFFFFFFFFFFFF DUP2 GT ISZERO PUSH2 0x1E2B JUMPI PUSH2 0x1E2A PUSH2 0x1CBD JUMP JUMPDEST JUMPDEST PUSH2 0x1E37 DUP5 DUP3 DUP6 ADD PUSH2 0x1DC9 JUMP JUMPDEST SWAP2 POP POP SWAP3 SWAP2 POP POP JUMP JUMPDEST PUSH1 0x0 DUP3 DUP3 MSTORE PUSH1 0x20 DUP3 ADD SWAP1 POP SWAP3 SWAP2 POP POP JUMP JUMPDEST PUSH1 0x0 PUSH2 0x1E5C DUP3 PUSH2 0x1B66 JUMP JUMPDEST PUSH2 0x1E66 DUP2 DUP6 PUSH2 0x1E40 JUMP JUMPDEST SWAP4 POP PUSH2 0x1E76 DUP2 DUP6 PUSH1 0x20 DUP7 ADD PUSH2 0x1B82 JUMP JUMPDEST PUSH2 0x1E7F DUP2 PUSH2 0x1BAC JUMP JUMPDEST DUP5 ADD SWAP2 POP POP SWAP3 SWAP2 POP POP JUMP JUMPDEST PUSH1 0x0 PUSH20 0xFFFFFFFFFFFFFFFFFFFFFFFFFFFFFFFFFFFFFFFF DUP3 AND SWAP1 POP SWAP2 SWAP1 POP JUMP JUMPDEST PUSH1 0x0 PUSH2 0x1EB5 DUP3 PUSH2 0x1E8A JUMP JUMPDEST SWAP1 POP SWAP2 SWAP1 POP JUMP JUMPDEST PUSH2 0x1EC5 DUP2 PUSH2 0x1EAA JUMP JUMPDEST DUP3 MSTORE POP POP JUMP JUMPDEST PUSH32 0x4E487B7100000000000000000000000000000000000000000000000000000000 PUSH1 0x0 MSTORE PUSH1 0x21 PUSH1 0x4 MSTORE PUSH1 0x24 PUSH1 0x0 REVERT JUMPDEST PUSH1 0x6 DUP2 LT PUSH2 0x1F0B JUMPI PUSH2 0x1F0A PUSH2 0x1ECB JUMP JUMPDEST JUMPDEST POP JUMP JUMPDEST PUSH1 0x0 DUP2 SWAP1 POP PUSH2 0x1F1C DUP3 PUSH2 0x1EFA JUMP JUMPDEST SWAP2 SWAP1 POP JUMP JUMPDEST PUSH1 0x0 PUSH2 0x1F2C DUP3 PUSH2 0x1F0E JUMP JUMPDEST SWAP1 POP SWAP2 SWAP1 POP JUMP JUMPDEST PUSH2 0x1F3C DUP2 PUSH2 0x1F21 JUMP JUMPDEST DUP3 MSTORE POP POP JUMP JUMPDEST PUSH1 0x0 DUP2 SWAP1 POP SWAP2 SWAP1 POP JUMP JUMPDEST PUSH2 0x1F55 DUP2 PUSH2 0x1F42 JUMP JUMPDEST DUP3 MSTORE POP POP JUMP JUMPDEST PUSH1 0x0 PUSH2 0x160 DUP3 ADD SWAP1 POP DUP2 DUP2 SUB PUSH1 0x0 DUP4 ADD MSTORE PUSH2 0x1F76 DUP2 DUP15 PUSH2 0x1E51 JUMP JUMPDEST SWAP1 POP DUP2 DUP2 SUB PUSH1 0x20 DUP4 ADD MSTORE PUSH2 0x1F8A DUP2 DUP14 PUSH2 0x1E51 JUMP JUMPDEST SWAP1 POP DUP2 DUP2 SUB PUSH1 0x40 DUP4 ADD MSTORE PUSH2 0x1F9E DUP2 DUP13 PUSH2 0x1E51 JUMP JUMPDEST SWAP1 POP DUP2 DUP2 SUB PUSH1 0x60 DUP4 ADD MSTORE PUSH2 0x1FB2 DUP2 DUP12 PUSH2 0x1E51 JUMP JUMPDEST SWAP1 POP DUP2 DUP2 SUB PUSH1 0x80 DUP4 ADD MSTORE PUSH2 0x1FC6 DUP2 DUP11 PUSH2 0x1E51 JUMP JUMPDEST SWAP1 POP DUP2 DUP2 SUB PUSH1 0xA0 DUP4 ADD MSTORE PUSH2 0x1FDA DUP2 DUP10 PUSH2 0x1E51 JUMP JUMPDEST SWAP1 POP DUP2 DUP2 SUB PUSH1 0xC0 DUP4 ADD MSTORE PUSH2 0x1FEE DUP2 DUP9 PUSH2 0x1E51 JUMP JUMPDEST SWAP1 POP DUP2 DUP2 SUB PUSH1 0xE0 DUP4 ADD MSTORE PUSH2 0x2002 DUP2 DUP8 PUSH2 0x1E51 JUMP JUMPDEST SWAP1 POP PUSH2 0x2012 PUSH2 0x100 DUP4 ADD DUP7 PUSH2 0x1EBC JUMP JUMPDEST PUSH2 0x2020 PUSH2 0x120 DUP4 ADD DUP6 PUSH2 0x1F33 JUMP JUMPDEST PUSH2 0x202E PUSH2 0x140 DUP4 ADD DUP5 PUSH2 0x1F4C JUMP JUMPDEST SWAP13 SWAP12 POP POP POP POP POP POP POP POP POP POP POP POP JUMP JUMPDEST PUSH1 0x0 DUP1 PUSH1 0x0 DUP1 PUSH1 0x0 DUP1 PUSH1 0xC0 DUP8 DUP10 SUB SLT ISZERO PUSH2 0x205B JUMPI PUSH2 0x205A PUSH2 0x1CB8 JUMP JUMPDEST JUMPDEST PUSH1 0x0 DUP8 ADD CALLDATALOAD PUSH8 0xFFFFFFFFFFFFFFFF DUP2 GT ISZERO PUSH2 0x2079 JUMPI PUSH2 0x2078 PUSH2 0x1CBD JUMP JUMPDEST JUMPDEST PUSH2 0x2085 DUP10 DUP3 DUP11 ADD PUSH2 0x1DC9 JUMP JUMPDEST SWAP7 POP POP PUSH1 0x20 DUP8 ADD CALLDATALOAD PUSH8 0xFFFFFFFFFFFFFFFF DUP2 GT ISZERO PUSH2 0x20A6 JUMPI PUSH2 0x20A5 PUSH2 0x1CBD JUMP JUMPDEST JUMPDEST PUSH2 0x20B2 DUP10 DUP3 DUP11 ADD PUSH2 0x1DC9 JUMP JUMPDEST SWAP6 POP POP PUSH1 0x40 DUP8 ADD CALLDATALOAD PUSH8 0xFFFFFFFFFFFFFFFF DUP2 GT ISZERO PUSH2 0x20D3 JUMPI PUSH2 0x20D2 PUSH2 0x1CBD JUMP JUMPDEST JUMPDEST PUSH2 0x20DF DUP10 DUP3 DUP11 ADD PUSH2 0x1DC9 JUMP JUMPDEST SWAP5 POP POP PUSH1 0x60 DUP8 ADD CALLDATALOAD PUSH8 0xFFFFFFFFFFFFFFFF DUP2 GT ISZERO PUSH2 0x2100 JUMPI PUSH2 0x20FF PUSH2 0x1CBD JUMP JUMPDEST JUMPDEST PUSH2 0x210C DUP10 DUP3 DUP11 ADD PUSH2 0x1DC9 JUMP JUMPDEST SWAP4 POP POP PUSH1 0x80 DUP8 ADD CALLDATALOAD PUSH8 0xFFFFFFFFFFFFFFFF DUP2 GT ISZERO PUSH2 0x212D JUMPI PUSH2 0x212C PUSH2 0x1CBD JUMP JUMPDEST JUMPDEST PUSH2 0x2139 DUP10 DUP3 DUP11 ADD PUSH2 0x1DC9 JUMP JUMPDEST SWAP3 POP POP PUSH1 0xA0 DUP8 ADD CALLDATALOAD PUSH8 0xFFFFFFFFFFFFFFFF DUP2 GT ISZERO PUSH2 0x215A JUMPI PUSH2 0x2159 PUSH2 0x1CBD JUMP JUMPDEST JUMPDEST PUSH2 0x2166 DUP10 DUP3 DUP11 ADD PUSH2 0x1DC9 JUMP JUMPDEST SWAP2 POP POP SWAP3 SWAP6 POP SWAP3 SWAP6 POP SWAP3 SWAP6 JUMP JUMPDEST PUSH2 0x217C DUP2 PUSH2 0x1EAA JUMP JUMPDEST DUP2 EQ PUSH2 0x2187 JUMPI PUSH1 0x0 DUP1 REVERT JUMPDEST POP JUMP JUMPDEST PUSH1 0x0 DUP2 CALLDATALOAD SWAP1 POP PUSH2 0x2199 DUP2 PUSH2 0x2173 JUMP JUMPDEST SWAP3 SWAP2 POP POP JUMP JUMPDEST PUSH1 0x0 DUP1 PUSH1 0x0 PUSH1 0x60 DUP5 DUP7 SUB SLT ISZERO PUSH2 0x21B8 JUMPI PUSH2 0x21B7 PUSH2 0x1CB8 JUMP JUMPDEST JUMPDEST PUSH1 0x0 DUP5 ADD CALLDATALOAD PUSH8 0xFFFFFFFFFFFFFFFF DUP2 GT ISZERO PUSH2 0x21D6 JUMPI PUSH2 0x21D5 PUSH2 0x1CBD JUMP JUMPDEST JUMPDEST PUSH2 0x21E2 DUP7 DUP3 DUP8 ADD PUSH2 0x1DC9 JUMP JUMPDEST SWAP4 POP POP PUSH1 0x20 DUP5 ADD CALLDATALOAD PUSH8 0xFFFFFFFFFFFFFFFF DUP2 GT ISZERO PUSH2 0x2203 JUMPI PUSH2 0x2202 PUSH2 0x1CBD JUMP JUMPDEST JUMPDEST PUSH2 0x220F DUP7 DUP3 DUP8 ADD PUSH2 0x1DC9 JUMP JUMPDEST SWAP3 POP POP PUSH1 0x40 PUSH2 0x2220 DUP7 DUP3 DUP8 ADD PUSH2 0x218A JUMP JUMPDEST SWAP2 POP POP SWAP3 POP SWAP3 POP SWAP3 JUMP JUMPDEST PUSH2 0x2233 DUP2 PUSH2 0x1EAA JUMP JUMPDEST DUP3 MSTORE POP POP JUMP JUMPDEST PUSH2 0x2242 DUP2 PUSH2 0x1F21 JUMP JUMPDEST DUP3 MSTORE POP POP JUMP JUMPDEST PUSH2 0x2251 DUP2 PUSH2 0x1F42 JUMP JUMPDEST DUP3 MSTORE POP POP JUMP JUMPDEST PUSH1 0x0 PUSH2 0x160 DUP4 ADD PUSH1 0x0 DUP4 ADD MLOAD DUP5 DUP3 SUB PUSH1 0x0 DUP7 ADD MSTORE PUSH2 0x2275 DUP3 DUP3 PUSH2 0x1BBD JUMP JUMPDEST SWAP2 POP POP PUSH1 0x20 DUP4 ADD MLOAD DUP5 DUP3 SUB PUSH1 0x20 DUP7 ADD MSTORE PUSH2 0x228F DUP3 DUP3 PUSH2 0x1BBD JUMP JUMPDEST SWAP2 POP POP PUSH1 0x40 DUP4 ADD MLOAD DUP5 DUP3 SUB PUSH1 0x40 DUP7 ADD MSTORE PUSH2 0x22A9 DUP3 DUP3 PUSH2 0x1BBD JUMP JUMPDEST SWAP2 POP POP PUSH1 0x60 DUP4 ADD MLOAD DUP5 DUP3 SUB PUSH1 0x60 DUP7 ADD MSTORE PUSH2 0x22C3 DUP3 DUP3 PUSH2 0x1BBD JUMP JUMPDEST SWAP2 POP POP PUSH1 0x80 DUP4 ADD MLOAD DUP5 DUP3 SUB PUSH1 0x80 DUP7 ADD MSTORE PUSH2 0x22DD DUP3 DUP3 PUSH2 0x1BBD JUMP JUMPDEST SWAP2 POP POP PUSH1 0xA0 DUP4 ADD MLOAD DUP5 DUP3 SUB PUSH1 0xA0 DUP7 ADD MSTORE PUSH2 0x22F7 DUP3 DUP3 PUSH2 0x1BBD JUMP JUMPDEST SWAP2 POP POP PUSH1 0xC0 DUP4 ADD MLOAD DUP5 DUP3 SUB PUSH1 0xC0 DUP7 ADD MSTORE PUSH2 0x2311 DUP3 DUP3 PUSH2 0x1BBD JUMP JUMPDEST SWAP2 POP POP PUSH1 0xE0 DUP4 ADD MLOAD DUP5 DUP3 SUB PUSH1 0xE0 DUP7 ADD MSTORE PUSH2 0x232B DUP3 DUP3 PUSH2 0x1BBD JUMP JUMPDEST SWAP2 POP POP PUSH2 0x100 DUP4 ADD MLOAD PUSH2 0x2342 PUSH2 0x100 DUP7 ADD DUP3 PUSH2 0x222A JUMP JUMPDEST POP PUSH2 0x120 DUP4 ADD MLOAD PUSH2 0x2357 PUSH2 0x120 DUP7 ADD DUP3 PUSH2 0x2239 JUMP JUMPDEST POP PUSH2 0x140 DUP4 ADD MLOAD PUSH2 0x236C PUSH2 0x140 DUP7 ADD DUP3 PUSH2 0x2248 JUMP JUMPDEST POP DUP1 SWAP2 POP POP SWAP3 SWAP2 POP POP JUMP JUMPDEST PUSH1 0x0 PUSH1 0x20 DUP3 ADD SWAP1 POP DUP2 DUP2 SUB PUSH1 0x0 DUP4 ADD MSTORE PUSH2 0x2391 DUP2 DUP5 PUSH2 0x2257 JUMP JUMPDEST SWAP1 POP SWAP3 SWAP2 POP POP JUMP JUMPDEST PUSH2 0x23A2 DUP2 PUSH2 0x1F42 JUMP JUMPDEST DUP2 EQ PUSH2 0x23AD JUMPI PUSH1 0x0 DUP1 REVERT JUMPDEST POP JUMP JUMPDEST PUSH1 0x0 DUP2 CALLDATALOAD SWAP1 POP PUSH2 0x23BF DUP2 PUSH2 0x2399 JUMP JUMPDEST SWAP3 SWAP2 POP POP JUMP JUMPDEST PUSH1 0x0 PUSH1 0x20 DUP3 DUP5 SUB SLT ISZERO PUSH2 0x23DB JUMPI PUSH2 0x23DA PUSH2 0x1CB8 JUMP JUMPDEST JUMPDEST PUSH1 0x0 PUSH2 0x23E9 DUP5 DUP3 DUP6 ADD PUSH2 0x23B0 JUMP JUMPDEST SWAP2 POP POP SWAP3 SWAP2 POP POP JUMP JUMPDEST PUSH1 0x0 PUSH1 0x20 DUP3 ADD SWAP1 POP DUP2 DUP2 SUB PUSH1 0x0 DUP4 ADD MSTORE PUSH2 0x240C DUP2 DUP5 PUSH2 0x1E51 JUMP JUMPDEST SWAP1 POP SWAP3 SWAP2 POP POP JUMP JUMPDEST PUSH1 0x0 PUSH1 0x20 DUP3 ADD SWAP1 POP PUSH2 0x2429 PUSH1 0x0 DUP4 ADD DUP5 PUSH2 0x1F4C JUMP JUMPDEST SWAP3 SWAP2 POP POP JUMP JUMPDEST PUSH32 0x4E487B7100000000000000000000000000000000000000000000000000000000 PUSH1 0x0 MSTORE PUSH1 0x22 PUSH1 0x4 MSTORE PUSH1 0x24 PUSH1 0x0 REVERT JUMPDEST PUSH1 0x0 PUSH1 0x2 DUP3 DIV SWAP1 POP PUSH1 0x1 DUP3 AND DUP1 PUSH2 0x2476 JUMPI PUSH1 0x7F DUP3 AND SWAP2 POP JUMPDEST PUSH1 0x20 DUP3 LT DUP2 SUB PUSH2 0x2489 JUMPI PUSH2 0x2488 PUSH2 0x242F JUMP JUMPDEST JUMPDEST POP SWAP2 SWAP1 POP JUMP JUMPDEST PUSH1 0x0 DUP2 SWAP1 POP SWAP3 SWAP2 POP POP JUMP JUMPDEST PUSH1 0x0 PUSH2 0x24A5 DUP3 PUSH2 0x1B66 JUMP JUMPDEST PUSH2 0x24AF DUP2 DUP6 PUSH2 0x248F JUMP JUMPDEST SWAP4 POP PUSH2 0x24BF DUP2 DUP6 PUSH1 0x20 DUP7 ADD PUSH2 0x1B82 JUMP JUMPDEST DUP1 DUP5 ADD SWAP2 POP POP SWAP3 SWAP2 POP POP JUMP JUMPDEST PUSH1 0x0 PUSH2 0x24D7 DUP3 DUP5 PUSH2 0x249A JUMP JUMPDEST SWAP2 POP DUP2 SWAP1 POP SWAP3 SWAP2 POP POP JUMP JUMPDEST PUSH32 0x4D65646963696E65206E6F7420666F756E640000000000000000000000000000 PUSH1 0x0 DUP3 ADD MSTORE POP JUMP JUMPDEST PUSH1 0x0 PUSH2 0x2518 PUSH1 0x12 DUP4 PUSH2 0x1E40 JUMP JUMPDEST SWAP2 POP PUSH2 0x2523 DUP3 PUSH2 0x24E2 JUMP JUMPDEST PUSH1 0x20 DUP3 ADD SWAP1 POP SWAP2 SWAP1 POP JUMP JUMPDEST PUSH1 0x0 PUSH1 0x20 DUP3 ADD SWAP1 POP DUP2 DUP2 SUB PUSH1 0x0 DUP4 ADD MSTORE PUSH2 0x2547 DUP2 PUSH2 0x250B JUMP JUMPDEST SWAP1 POP SWAP2 SWAP1 POP JUMP JUMPDEST PUSH32 0x4E6F7420746865206F776E657200000000000000000000000000000000000000 PUSH1 0x0 DUP3 ADD MSTORE POP JUMP JUMPDEST PUSH1 0x0 PUSH2 0x2584 PUSH1 0xD DUP4 PUSH2 0x1E40 JUMP JUMPDEST SWAP2 POP PUSH2 0x258F DUP3 PUSH2 0x254E JUMP JUMPDEST PUSH1 0x20 DUP3 ADD SWAP1 POP SWAP2 SWAP1 POP JUMP JUMPDEST PUSH1 0x0 PUSH1 0x20 DUP3 ADD SWAP1 POP DUP2 DUP2 SUB PUSH1 0x0 DUP4 ADD MSTORE PUSH2 0x25B3 DUP2 PUSH2 0x2577 JUMP JUMPDEST SWAP1 POP SWAP2 SWAP1 POP JUMP JUMPDEST PUSH32 0x4D65646963696E6520616C726561647920657869737473000000000000000000 PUSH1 0x0 DUP3 ADD MSTORE POP JUMP JUMPDEST PUSH1 0x0 PUSH2 0x25F0 PUSH1 0x17 DUP4 PUSH2 0x1E40 JUMP JUMPDEST SWAP2 POP PUSH2 0x25FB DUP3 PUSH2 0x25BA JUMP JUMPDEST PUSH1 0x20 DUP3 ADD SWAP1 POP SWAP2 SWAP1 POP JUMP JUMPDEST PUSH1 0x0 PUSH1 0x20 DUP3 ADD SWAP1 POP DUP2 DUP2 SUB PUSH1 0x0 DUP4 ADD MSTORE PUSH2 0x261F DUP2 PUSH2 0x25E3 JUMP JUMPDEST SWAP1 POP SWAP2 SWAP1 POP JUMP JUMPDEST PUSH1 0x0 DUP2 SWAP1 POP DUP2 PUSH1 0x0 MSTORE PUSH1 0x20 PUSH1 0x0 KECCAK256 SWAP1 POP SWAP2 SWAP1 POP JUMP JUMPDEST PUSH1 0x0 PUSH1 0x20 PUSH1 0x1F DUP4 ADD DIV SWAP1 POP SWAP2 SWAP1 POP JUMP JUMPDEST PUSH1 0x0 DUP3 DUP3 SHL SWAP1 POP SWAP3 SWAP2 POP POP JUMP JUMPDEST PUSH1 0x0 PUSH1 0x8 DUP4 MUL PUSH2 0x2688 PUSH32 0xFFFFFFFFFFFFFFFFFFFFFFFFFFFFFFFFFFFFFFFFFFFFFFFFFFFFFFFFFFFFFFFF DUP3 PUSH2 0x264B JUMP JUMPDEST PUSH2 0x2692 DUP7 DUP4 PUSH2 0x264B JUMP JUMPDEST SWAP6 POP DUP1 NOT DUP5 AND SWAP4 POP DUP1 DUP7 AND DUP5 OR SWAP3 POP POP POP SWAP4 SWAP3 POP POP POP JUMP JUMPDEST PUSH1 0x0 DUP2 SWAP1 POP SWAP2 SWAP1 POP JUMP JUMPDEST PUSH1 0x0 PUSH2 0x26CF PUSH2 0x26CA PUSH2 0x26C5 DUP5 PUSH2 0x1F42 JUMP JUMPDEST PUSH2 0x26AA JUMP JUMPDEST PUSH2 0x1F42 JUMP JUMPDEST SWAP1 POP SWAP2 SWAP1 POP JUMP JUMPDEST PUSH1 0x0 DUP2 SWAP1 POP SWAP2 SWAP1 POP JUMP JUMPDEST PUSH2 0x26E9 DUP4 PUSH2 0x26B4 JUMP JUMPDEST PUSH2 0x26FD PUSH2 0x26F5 DUP3 PUSH2 0x26D6 JUMP JUMPDEST DUP5 DUP5 SLOAD PUSH2 0x2658 JUMP JUMPDEST DUP3 SSTORE POP POP POP POP JUMP JUMPDEST PUSH1 0x0 SWAP1 JUMP JUMPDEST PUSH2 0x2712 PUSH2 0x2705 JUMP JUMPDEST PUSH2 0x271D DUP2 DUP5 DUP5 PUSH2 0x26E0 JUMP JUMPDEST POP POP POP JUMP JUMPDEST JUMPDEST DUP2 DUP2 LT ISZERO PUSH2 0x2741 JUMPI PUSH2 0x2736 PUSH1 0x0 DUP3 PUSH2 0x270A JUMP JUMPDEST PUSH1 0x1 DUP2 ADD SWAP1 POP PUSH2 0x2723 JUMP JUMPDEST POP POP JUMP JUMPDEST PUSH1 0x1F DUP3 GT ISZERO PUSH2 0x2786 JUMPI PUSH2 0x2757 DUP2 PUSH2 0x2626 JUMP JUMPDEST PUSH2 0x2760 DUP5 PUSH2 0x263B JUMP JUMPDEST DUP2 ADD PUSH1 0x20 DUP6 LT ISZERO PUSH2 0x276F JUMPI DUP2 SWAP1 POP JUMPDEST PUSH2 0x2783 PUSH2 0x277B DUP6 PUSH2 0x263B JUMP JUMPDEST DUP4 ADD DUP3 PUSH2 0x2722 JUMP JUMPDEST POP POP JUMPDEST POP POP POP JUMP JUMPDEST PUSH1 0x0 DUP3 DUP3 SHR SWAP1 POP SWAP3 SWAP2 POP POP JUMP JUMPDEST PUSH1 0x0 PUSH2 0x27A9 PUSH1 0x0 NOT DUP5 PUSH1 0x8 MUL PUSH2 0x278B JUMP JUMPDEST NOT DUP1 DUP4 AND SWAP2 POP POP SWAP3 SWAP2 POP POP JUMP JUMPDEST PUSH1 0x0 PUSH2 0x27C2 DUP4 DUP4 PUSH2 0x2798 JUMP JUMPDEST SWAP2 POP DUP3 PUSH1 0x2 MUL DUP3 OR SWAP1 POP SWAP3 SWAP2 POP POP JUMP JUMPDEST PUSH2 0x27DB DUP3 PUSH2 0x1B66 JUMP JUMPDEST PUSH8 0xFFFFFFFFFFFFFFFF DUP2 GT ISZERO PUSH2 0x27F4 JUMPI PUSH2 0x27F3 PUSH2 0x1CCC JUMP JUMPDEST JUMPDEST PUSH2 0x27FE DUP3 SLOAD PUSH2 0x245E JUMP JUMPDEST PUSH2 0x2809 DUP3 DUP3 DUP6 PUSH2 0x2745 JUMP JUMPDEST PUSH1 0x0 PUSH1 0x20 SWAP1 POP PUSH1 0x1F DUP4 GT PUSH1 0x1 DUP2 EQ PUSH2 0x283C JUMPI PUSH1 0x0 DUP5 ISZERO PUSH2 0x282A JUMPI DUP3 DUP8 ADD MLOAD SWAP1 POP JUMPDEST PUSH2 0x2834 DUP6 DUP3 PUSH2 0x27B6 JUMP JUMPDEST DUP7 SSTORE POP PUSH2 0x289C JUMP JUMPDEST PUSH1 0x1F NOT DUP5 AND PUSH2 0x284A DUP7 PUSH2 0x2626 JUMP JUMPDEST PUSH1 0x0 JUMPDEST DUP3 DUP2 LT ISZERO PUSH2 0x2872 JUMPI DUP5 DUP10 ADD MLOAD DUP3 SSTORE PUSH1 0x1 DUP3 ADD SWAP2 POP PUSH1 0x20 DUP6 ADD SWAP5 POP PUSH1 0x20 DUP2 ADD SWAP1 POP PUSH2 0x284D JUMP JUMPDEST DUP7 DUP4 LT ISZERO PUSH2 0x288F JUMPI DUP5 DUP10 ADD MLOAD PUSH2 0x288B PUSH1 0x1F DUP10 AND DUP3 PUSH2 0x2798 JUMP JUMPDEST DUP4 SSTORE POP JUMPDEST PUSH1 0x1 PUSH1 0x2 DUP9 MUL ADD DUP9 SSTORE POP POP POP JUMPDEST POP POP POP POP POP POP JUMP JUMPDEST PUSH1 0x0 PUSH1 0x80 DUP3 ADD SWAP1 POP DUP2 DUP2 SUB PUSH1 0x0 DUP4 ADD MSTORE PUSH2 0x28BE DUP2 DUP8 PUSH2 0x1E51 JUMP JUMPDEST SWAP1 POP DUP2 DUP2 SUB PUSH1 0x20 DUP4 ADD MSTORE PUSH2 0x28D2 DUP2 DUP7 PUSH2 0x1E51 JUMP JUMPDEST SWAP1 POP PUSH2 0x28E1 PUSH1 0x40 DUP4 ADD DUP6 PUSH2 0x1EBC JUMP JUMPDEST PUSH2 0x28EE PUSH1 0x60 DUP4 ADD DUP5 PUSH2 0x1F4C JUMP JUMPDEST SWAP6 SWAP5 POP POP POP POP POP JUMP JUMPDEST PUSH1 0x0 PUSH1 0x80 DUP3 ADD SWAP1 POP DUP2 DUP2 SUB PUSH1 0x0 DUP4 ADD MSTORE PUSH2 0x2911 DUP2 DUP8 PUSH2 0x1E51 JUMP JUMPDEST SWAP1 POP PUSH2 0x2920 PUSH1 0x20 DUP4 ADD DUP7 PUSH2 0x1EBC JUMP JUMPDEST PUSH2 0x292D PUSH1 0x40 DUP4 ADD DUP6 PUSH2 0x1EBC JUMP JUMPDEST PUSH2 0x293A PUSH1 0x60 DUP4 ADD DUP5 PUSH2 0x1F4C JUMP JUMPDEST SWAP6 SWAP5 POP POP POP POP POP JUMP JUMPDEST PUSH1 0x0 PUSH1 0x40 DUP3 ADD SWAP1 POP DUP2 DUP2 SUB PUSH1 0x0 DUP4 ADD MSTORE PUSH2 0x295D DUP2 DUP6 PUSH2 0x1E51 JUMP JUMPDEST SWAP1 POP PUSH2 0x296C PUSH1 0x20 DUP4 ADD DUP5 PUSH2 0x1F4C JUMP JUMPDEST SWAP4 SWAP3 POP POP POP JUMP INVALID LOG2 PUSH5 0x6970667358 0x22 SLT KECCAK256 0x24 0xD1 SWAP8 0xEC 0xF 0xB9 SWAP2 0x25 0xEC 0x24 0x26 PUSH4 0x1D792851 0xBA 0xD7 0xDF 0xEC 0xE3 0xC9 0xDC 0x5D PUSH22 0x8970D3A7958A564736F6C6343000814003300000000 "
        },
        "methodIdentifiers": {
          "addMedicine(string,string,string,string,string,string)": "32a486d8",
          "assignDistributor(string,string,address)": "40075e79",
          "assignPharmacy(string,string,address)": "4cdf4c5d",
          "getAllMedicineIds()": "1262a67e",
          "getMedicine(string)": "90c63477",
          "getMedicineCount()": "eadeb84c",
          "markAvailableAtPharmacy(string)": "4f5949ba",
          "medicineIds(uint256)": "a5d7cedd",
          "medicines(string)": "21b9da99",
          "receiveByDistributor(string)": "13399534",
          "sellMedicine(string)": "d22ef8ee"
        }
      }
    }
  }
}