{
  "_format": "hh-sol-artifact-1",
  "contractName": "Pharma",
  "sourceName": "contracts/Pharma.sol",
  "abi": [
    {
      "anonymous": false,
      "inputs": [
        {
          "indexed": false,
          "internalType": "string",
          "name": "medicineId",
          "type": "string"
        },
        {
          "indexed": false,
          "internalType": "string",
          "name": "distributorName",
          "type": "string"
        },
        {
          "indexed": false,
          "internalType": "address",
          "name": "newOwner",
          "type": "address"
        },
        {
          "indexed": false,
          "internalType": "uint256",
          "name": "timestamp",
          "type": "uint256"
        }
      ],
      "name": "DistributorUpdated",
      "type": "event"
    },
    {
      "anonymous": false,
      "inputs": [
        {
          "indexed": false,
          "internalType": "string",
          "name": "medicineId",
          "type": "string"
        },
        {
          "indexed": false,
          "internalType": "string",
          "name": "name",
          "type": "string"
        },
        {
          "indexed": false,
          "internalType": "address",
          "name": "owner",
          "type": "address"
        },
        {
          "indexed": false,
          "internalType": "uint256",
          "name": "timestamp",
          "type": "uint256"
        }
      ],
      "name": "MedicineAdded",
      "type": "event"
    },
    {
      "anonymous": false,
      "inputs": [
        {
          "indexed": false,
          "internalType": "string",
          "name": "medicineId",
          "type": "string"
        },
        {
          "indexed": false,
          "internalType": "uint256",
          "name": "timestamp",
          "type": "uint256"
        }
      ],
      "name": "MedicineSold",
      "type": "event"
    },
    {
      "anonymous": false,
      "inputs": [
        {
          "indexed": false,
          "internalType": "string",
          "name": "medicineId",
          "type": "string"
        },
        {
          "indexed": false,
          "internalType": "address",
          "name": "from",
          "type": "address"
        },
        {
          "indexed": false,
          "internalType": "address",
          "name": "to",
          "type": "address"
        },
        {
          "indexed": false,
          "internalType": "uint256",
          "name": "timestamp",
          "type": "uint256"
        }
      ],
      "name": "OwnershipTransferred",
      "type": "event"
    },
    {
      "anonymous": false,
      "inputs": [
        {
          "indexed": false,
          "internalType": "string",
          "name": "medicineId",
          "type": "string"
        },
        {
          "indexed": false,
          "internalType": "string",
          "name": "pharmacyName",
          "type": "string"
        },
        {
          "indexed": false,
          "internalType": "address",
          "name": "newOwner",
          "type": "address"
        },
        {
          "indexed": false,
          "internalType": "uint256",
          "name": "timestamp",
          "type": "uint256"
        }
      ],
      "name": "PharmacyUpdated",
      "type": "event"
    },
    {
      "inputs": [
        {
          "internalType": "string",
          "name": "_medicineId",
          "type": "string"
        },
        {
          "internalType": "string",
          "name": "_name",
          "type": "string"
        },
        {
          "internalType": "string",
          "name": "_batchNumber",
          "type": "string"
        },
        {
          "internalType": "string",
          "name": "_manufacturingDate",
          "type": "string"
        },
        {
          "internalType": "string",
          "name": "_expiryDate",
          "type": "string"
        },
        {
          "internalType": "string",
          "name": "_manufacturerName",
          "type": "string"
        }
      ],
      "name": "addMedicine",
      "outputs": [],
      "stateMutability": "nonpayable",
      "type": "function"
    },
    {
      "inputs": [
        {
          "internalType": "string",
          "name": "_medicineId",
          "type": "string"
        },
        {
          "internalType": "string",
          "name": "_distributorName",
          "type": "string"
        },
        {
          "internalType": "address",
          "name": "_distributorAddress",
          "type": "address"
        }
      ],
      "name": "assignDistributor",
      "outputs": [],
      "stateMutability": "nonpayable",
      "type": "function"
    },
    {
      "inputs": [
        {
          "internalType": "string",
          "name": "_medicineId",
          "type": "string"
        },
        {
          "internalType": "string",
          "name": "_pharmacyName",
          "type": "string"
        },
        {
          "internalType": "address",
          "name": "_pharmacyAddress",
          "type": "address"
        }
      ],
      "name": "assignPharmacy",
      "outputs": [],
      "stateMutability": "nonpayable",
      "type": "function"
    },
    {
      "inputs": [],
      "name": "getAllMedicineIds",
      "outputs": [
        {
          "internalType": "string[]",
          "name": "",
          "type": "string[]"
        }
      ],
      "stateMutability": "view",
      "type": "function"
    },
    {
      "inputs": [
        {
          "internalType": "string",
          "name": "_medicineId",
          "type": "string"
        }
      ],
      "name": "getMedicine",
      "outputs": [
        {
          "components": [
            {
              "internalType": "string",
              "name": "medicineId",
              "type": "string"
            },
            {
              "internalType": "string",
              "name": "name",
              "type": "string"
            },
            {
              "internalType": "string",
              "name": "batchNumber",
              "type": "string"
            },
            {
              "internalType": "string",
              "name": "manufacturingDate",
              "type": "string"
            },
            {
              "internalType": "string",
              "name": "expiryDate",
              "type": "string"
            },
            {
              "internalType": "string",
              "name": "manufacturerName",
              "type": "string"
            },
            {
              "internalType": "string",
              "name": "distributorName",
              "type": "string"
            },
            {
              "internalType": "string",
              "name": "pharmacyName",
              "type": "string"
            },
            {
              "internalType": "address",
              "name": "currentOwner",
              "type": "address"
            },
            {
              "internalType": "enum Pharma.Status",
              "name": "currentStatus",
              "type": "uint8"
            },
            {
              "internalType": "uint256",
              "name": "timestamp",
              "type": "uint256"
            }
          ],
          "internalType": "struct Pharma.Medicine",
          "name": "",
          "type": "tuple"
        }
      ],
      "stateMutability": "view",
      "type": "function"
    },
    {
      "inputs": [],
      "name": "getMedicineCount",
      "outputs": [
        {
          "internalType": "uint256",
          "name": "",
          "type": "uint256"
        }
      ],
      "stateMutability": "view",
      "type": "function"
    },
    {
      "inputs": [
        {
          "internalType": "string",
          "name": "_medicineId",
          "type": "string"
        }
      ],
      "name": "markAvailableAtPharmacy",
      "outputs": [],
      "stateMutability": "nonpayable",
      "type": "function"
    },
    {
      "inputs": [
        {
          "internalType": "uint256",
          "name": "",
          "type": "uint256"
        }
      ],
      "name": "medicineIds",
      "outputs": [
        {
          "internalType": "string",
          "name": "",
          "type": "string"
        }
      ],
      "stateMutability": "view",
      "type": "function"
    },
    {
      "inputs": [
        {
          "internalType": "string",
          "name": "",
          "type": "string"
        }
      ],
      "name": "medicines",
      "outputs": [
        {
          "internalType": "string",
          "name": "medicineId",
          "type": "string"
        },
        {
          "internalType": "string",
          "name": "name",
          "type": "string"
        },
        {
          "internalType": "string",
          "name": "batchNumber",
          "type": "string"
        },
        {
          "internalType": "string",
          "name": "manufacturingDate",
          "type": "string"
        },
        {
          "internalType": "string",
          "name": "expiryDate",
          "type": "string"
        },
        {
          "internalType": "string",
          "name": "manufacturerName",
          "type": "string"
        },
        {
          "internalType": "string",
          "name": "distributorName",
          "type": "string"
        },
        {
          "internalType": "string",
          "name": "pharmacyName",
          "type": "string"
        },
        {
          "internalType": "address",
          "name": "currentOwner",
          "type": "address"
        },
        {
          "internalType": "enum Pharma.Status",
          "name": "currentStatus",
          "type": "uint8"
        },
        {
          "internalType": "uint256",
          "name": "timestamp",
          "type": "uint256"
        }
      ],
      "stateMutability": "view",
      "type": "function"
    },
    {
      "inputs": [
        {
          "internalType": "string",
          "name": "_medicineId",
          "type": "string"
        }
      ],
      "name": "receiveByDistributor",
      "outputs": [],
      "stateMutability": "nonpayable",
      "type": "function"
    },
    {
      "inputs": [
        {
          "internalType": "string",
          "name": "_medicineId",
          "type": "string"
        }
      ],
      "name": "sellMedicine",
      "outputs": [],
      "stateMutability": "nonpayable",
      "type": "function"
    }
  ],
  "bytecode": "0x608060405234801561001057600080fd5b506129a9806100206000396000f3fe608060405234801561001057600080fd5b50600436106100a95760003560e01c80634cdf4c5d116100715780634cdf4c5d1461015a5780634f5949ba1461017657806390c6347714610192578063a5d7cedd146101c2578063d22ef8ee146101f2578063eadeb84c1461020e576100a9565b80631262a67e146100ae57806313399534146100cc57806321b9da99146100e857806332a486d81461012257806340075e791461013e575b600080fd5b6100b661022c565b6040516100c39190611c8c565b60405180910390f35b6100e660048036038101906100e19190611df7565b610305565b005b61010260048036038101906100fd9190611df7565b61049a565b6040516101199b9a99989796959493929190611f5b565b60405180910390f35b61013c6004803603810190610137919061203e565b610977565b005b6101586004803603810190610153919061219f565b610c48565b005b610174600480360381019061016f919061219f565b610ec0565b005b610190600480360381019061018b9190611df7565b611138565b005b6101ac60048036038101906101a79190611df7565b6112cd565b6040516101b99190612377565b60405180910390f35b6101dc60048036038101906101d791906123c5565b611831565b6040516101e991906123f2565b60405180910390f35b61020c60048036038101906102079190611df7565b6118dd565b005b610216611aab565b6040516102239190612414565b60405180910390f35b60606001805480602002602001604051908101604052809291908181526020016000905b828210156102fc57838290600052602060002001805461026f9061245e565b80601f016020809104026020016040519081016040528092919081815260200182805461029b9061245e565b80156102e85780601f106102bd576101008083540402835291602001916102e8565b820191906000526020600020905b8154815290600101906020018083116102cb57829003601f168201915b505050505081526020019060010190610250565b50505050905090565b806000808260405161031791906124cb565b908152602001604051809103902060000180546103339061245e565b905011610375576040517f08c379a000000000000000000000000000000000000000000000000000000000815260040161036c9061252e565b60405180910390fd5b813373ffffffffffffffffffffffffffffffffffffffff1660008260405161039d91906124cb565b908152602001604051809103902060080160009054906101000a900473ffffffffffffffffffffffffffffffffffffffff1673ffffffffffffffffffffffffffffffffffffffff1614610425576040517f08c379a000000000000000000000000000000000000000000000000000000000815260040161041c9061259a565b60405180910390fd5b600260008460405161043791906124cb565b908152602001604051809103902060080160146101000a81548160ff0219169083600581111561046a57610469611ecb565b5b02179055504260008460405161048091906124cb565b908152602001604051809103902060090181905550505050565b6000818051602081018201805184825260208301602085012081835280955050505050506000915090508060000180546104d39061245e565b80601f01602080910402602001604051908101604052809291908181526020018280546104ff9061245e565b801561054c5780601f106105215761010080835404028352916020019161054c565b820191906000526020600020905b81548152906001019060200180831161052f57829003601f168201915b5050505050908060010180546105619061245e565b80601f016020809104026020016040519081016040528092919081815260200182805461058d9061245e565b80156105da5780601f106105af576101008083540402835291602001916105da565b820191906000526020600020905b8154815290600101906020018083116105bd57829003601f168201915b5050505050908060020180546105ef9061245e565b80601f016020809104026020016040519081016040528092919081815260200182805461061b9061245e565b80156106685780601f1061063d57610100808354040283529160200191610668565b820191906000526020600020905b81548152906001019060200180831161064b57829003601f168201915b50505050509080600301805461067d9061245e565b80601f01602080910402602001604051908101604052809291908181526020018280546106a99061245e565b80156106f65780601f106106cb576101008083540402835291602001916106f6565b820191906000526020600020905b8154815290600101906020018083116106d957829003601f168201915b50505050509080600401805461070b9061245e565b80601f01602080910402602001604051908101604052809291908181526020018280546107379061245e565b80156107845780601f1061075957610100808354040283529160200191610784565b820191906000526020600020905b81548152906001019060200180831161076757829003601f168201915b5050505050908060050180546107999061245e565b80601f01602080910402602001604051908101604052809291908181526020018280546107c59061245e565b80156108125780601f106107e757610100808354040283529160200191610812565b820191906000526020600020905b8154815290600101906020018083116107f557829003601f168201915b5050505050908060060180546108279061245e565b80601f01602080910402602001604051908101604052809291908181526020018280546108539061245e565b80156108a05780601f10610875576101008083540402835291602001916108a0565b820191906000526020600020905b81548152906001019060200180831161088357829003601f168201915b5050505050908060070180546108b59061245e565b80601f01602080910402602001604051908101604052809291908181526020018280546108e19061245e565b801561092e5780601f106109035761010080835404028352916020019161092e565b820191906000526020600020905b81548152906001019060200180831161091157829003601f168201915b5050505050908060080160009054906101000a900473ffffffffffffffffffffffffffffffffffffffff16908060080160149054906101000a900460ff1690806009015490508b565b6000808760405161098891906124cb565b908152602001604051809103902060000180546109a49061245e565b9050146109e6576040517f08c379a00000000000000000000000000000000000000000000000000000000081526004016109dd90612606565b60405180910390fd5b6040518061016001604052808781526020018681526020018581526020018481526020018381526020018281526020016040518060200160405280600081525081526020016040518060200160405280600081525081526020013373ffffffffffffffffffffffffffffffffffffffff16815260200160006005811115610a7057610a6f611ecb565b5b815260200142815250600087604051610a8991906124cb565b90815260200160405180910390206000820151816000019081610aac91906127d2565b506020820151816001019081610ac291906127d2565b506040820151816002019081610ad891906127d2565b506060820151816003019081610aee91906127d2565b506080820151816004019081610b0491906127d2565b5060a0820151816005019081610b1a91906127d2565b5060c0820151816006019081610b3091906127d2565b5060e0820151816007019081610b4691906127d2565b506101008201518160080160006101000a81548173ffffffffffffffffffffffffffffffffffffffff021916908373ffffffffffffffffffffffffffffffffffffffff1602179055506101208201518160080160146101000a81548160ff02191690836005811115610bbb57610bba611ecb565b5b02179055506101408201518160090155905050600186908060018154018082558091505060019003906000526020600020016000909190919091509081610c0291906127d2565b507f04208a3bc3099751d24517e70ace4ecc3eb3f50481b08c03be86ca1cc487608886863342604051610c3894939291906128a4565b60405180910390a1505050505050565b8260008082604051610c5a91906124cb565b90815260200160405180910390206000018054610c769061245e565b905011610cb8576040517f08c379a0000000000000000000000000000000000000000000000000000000008152600401610caf9061252e565b60405180910390fd5b833373ffffffffffffffffffffffffffffffffffffffff16600082604051610ce091906124cb565b908152602001604051809103902060080160009054906101000a900473ffffffffffffffffffffffffffffffffffffffff1673ffffffffffffffffffffffffffffffffffffffff1614610d68576040517f08c379a0000000000000000000000000000000000000000000000000000000008152600401610d5f9061259a565b60405180910390fd5b60008086604051610d7991906124cb565b9081526020016040518091039020905084816006019081610d9a91906127d2565b5060018160080160146101000a81548160ff02191690836005811115610dc357610dc2611ecb565b5b021790555060008160080160009054906101000a900473ffffffffffffffffffffffffffffffffffffffff169050848260080160006101000a81548173ffffffffffffffffffffffffffffffffffffffff021916908373ffffffffffffffffffffffffffffffffffffffff1602179055504282600901819055507fd3ef4098651d2a212bb9864dfbb715f9c9695ecf7194031a7fd0ec97087801b487878742604051610e7294939291906128a4565b60405180910390a17fe9bf8dbaa7eb0b6910401512e60afcae7734db09df0b7291b4a16e630d796e5687828742604051610eaf94939291906128f7565b60405180910390a150505050505050565b8260008082604051610ed291906124cb565b90815260200160405180910390206000018054610eee9061245e565b905011610f30576040517f08c379a0000000000000000000000000000000000000000000000000000000008152600401610f279061252e565b60405180910390fd5b833373ffffffffffffffffffffffffffffffffffffffff16600082604051610f5891906124cb565b908152602001604051809103902060080160009054906101000a900473ffffffffffffffffffffffffffffffffffffffff1673ffffffffffffffffffffffffffffffffffffffff1614610fe0576040517f08c379a0000000000000000000000000000000000000000000000000000000008152600401610fd79061259a565b60405180910390fd5b60008086604051610ff191906124cb565b908152602001604051809103902090508481600701908161101291906127d2565b5060038160080160146101000a81548160ff0219169083600581111561103b5761103a611ecb565b5b021790555060008160080160009054906101000a900473ffffffffffffffffffffffffffffffffffffffff169050848260080160006101000a81548173ffffffffffffffffffffffffffffffffffffffff021916908373ffffffffffffffffffffffffffffffffffffffff1602179055504282600901819055507fac779e74d34a836730a9dc649f78c052913f7286c50d3af009df8a790a91f57e878787426040516110ea94939291906128a4565b60405180910390a17fe9bf8dbaa7eb0b6910401512e60afcae7734db09df0b7291b4a16e630d796e568782874260405161112794939291906128f7565b60405180910390a150505050505050565b806000808260405161114a91906124cb565b908152602001604051809103902060000180546111669061245e565b9050116111a8576040517f08c379a000000000000000000000000000000000000000000000000000000000815260040161119f9061252e565b60405180910390fd5b813373ffffffffffffffffffffffffffffffffffffffff166000826040516111d091906124cb565b908152602001604051809103902060080160009054906101000a900473ffffffffffffffffffffffffffffffffffffffff1673ffffffffffffffffffffffffffffffffffffffff1614611258576040517f08c379a000000000000000000000000000000000000000000000000000000000815260040161124f9061259a565b60405180910390fd5b600460008460405161126a91906124cb565b908152602001604051809103902060080160146101000a81548160ff0219169083600581111561129d5761129c611ecb565b5b0217905550426000846040516112b391906124cb565b908152602001604051809103902060090181905550505050565b6112d5611ab8565b6000826040516112e591906124cb565b90815260200160405180910390206040518061016001604052908160008201805461130f9061245e565b80601f016020809104026020016040519081016040528092919081815260200182805461133b9061245e565b80156113885780601f1061135d57610100808354040283529160200191611388565b820191906000526020600020905b81548152906001019060200180831161136b57829003601f168201915b505050505081526020016001820180546113a19061245e565b80601f01602080910402602001604051908101604052809291908181526020018280546113cd9061245e565b801561141a5780601f106113ef5761010080835404028352916020019161141a565b820191906000526020600020905b8154815290600101906020018083116113fd57829003601f168201915b505050505081526020016002820180546114339061245e565b80601f016020809104026020016040519081016040528092919081815260200182805461145f9061245e565b80156114ac5780601f10611481576101008083540402835291602001916114ac565b820191906000526020600020905b81548152906001019060200180831161148f57829003601f168201915b505050505081526020016003820180546114c59061245e565b80601f01602080910402602001604051908101604052809291908181526020018280546114f19061245e565b801561153e5780601f106115135761010080835404028352916020019161153e565b820191906000526020600020905b81548152906001019060200180831161152157829003601f168201915b505050505081526020016004820180546115579061245e565b80601f01602080910402602001604051908101604052809291908181526020018280546115839061245e565b80156115d05780601f106115a5576101008083540402835291602001916115d0565b820191906000526020600020905b8154815290600101906020018083116115b357829003601f168201915b505050505081526020016005820180546115e99061245e565b80601f01602080910402602001604051908101604052809291908181526020018280546116159061245e565b80156116625780601f1061163757610100808354040283529160200191611662565b820191906000526020600020905b81548152906001019060200180831161164557829003601f168201915b5050505050815260200160068201805461167b9061245e565b80601f01602080910402602001604051908101604052809291908181526020018280546116a79061245e565b80156116f45780601f106116c9576101008083540402835291602001916116f4565b820191906000526020600020905b8154815290600101906020018083116116d757829003601f168201915b5050505050815260200160078201805461170d9061245e565b80601f01602080910402602001604051908101604052809291908181526020018280546117399061245e565b80156117865780601f1061175b57610100808354040283529160200191611786565b820191906000526020600020905b81548152906001019060200180831161176957829003601f168201915b505050505081526020016008820160009054906101000a900473ffffffffffffffffffffffffffffffffffffffff1673ffffffffffffffffffffffffffffffffffffffff1673ffffffffffffffffffffffffffffffffffffffff1681526020016008820160149054906101000a900460ff16600581111561180a57611809611ecb565b5b600581111561181c5761181b611ecb565b5b81526020016009820154815250509050919050565b6001818154811061184157600080fd5b90600052602060002001600091509050805461185c9061245e565b80601f01602080910402602001604051908101604052809291908181526020018280546118889061245e565b80156118d55780601f106118aa576101008083540402835291602001916118d5565b820191906000526020600020905b8154815290600101906020018083116118b857829003601f168201915b505050505081565b80600080826040516118ef91906124cb565b9081526020016040518091039020600001805461190b9061245e565b90501161194d576040517f08c379a00000000000000000000000000000000000000000000000000000000081526004016119449061252e565b60405180910390fd5b813373ffffffffffffffffffffffffffffffffffffffff1660008260405161197591906124cb565b908152602001604051809103902060080160009054906101000a900473ffffffffffffffffffffffffffffffffffffffff1673ffffffffffffffffffffffffffffffffffffffff16146119fd576040517f08c379a00000000000000000000000000000000000000000000000000000000081526004016119f49061259a565b60405180910390fd5b6005600084604051611a0f91906124cb565b908152602001604051809103902060080160146101000a81548160ff02191690836005811115611a4257611a41611ecb565b5b021790555042600084604051611a5891906124cb565b9081526020016040518091039020600901819055507f77901e18e90543da6c897c086e6fa8a68f294f4f6e448157330b6067740b98488342604051611a9e929190612943565b60405180910390a1505050565b6000600180549050905090565b6040518061016001604052806060815260200160608152602001606081526020016060815260200160608152602001606081526020016060815260200160608152602001600073ffffffffffffffffffffffffffffffffffffffff16815260200160006005811115611b2d57611b2c611ecb565b5b8152602001600081525090565b600081519050919050565b600082825260208201905092915050565b6000819050602082019050919050565b600081519050919050565b600082825260208201905092915050565b60005b83811015611ba0578082015181840152602081019050611b85565b60008484015250505050565b6000601f19601f8301169050919050565b6000611bc882611b66565b611bd28185611b71565b9350611be2818560208601611b82565b611beb81611bac565b840191505092915050565b6000611c028383611bbd565b905092915050565b6000602082019050919050565b6000611c2282611b3a565b611c2c8185611b45565b935083602082028501611c3e85611b56565b8060005b85811015611c7a5784840389528151611c5b8582611bf6565b9450611c6683611c0a565b925060208a01995050600181019050611c42565b50829750879550505050505092915050565b60006020820190508181036000830152611ca68184611c17565b905092915050565b6000604051905090565b600080fd5b600080fd5b600080fd5b600080fd5b7f4e487b7100000000000000000000000000000000000000000000000000000000600052604160045260246000fd5b611d0482611bac565b810181811067ffffffffffffffff82111715611d2357611d22611ccc565b5b80604052505050565b6000611d36611cae565b9050611d428282611cfb565b919050565b600067ffffffffffffffff821115611d6257611d61611ccc565b5b611d6b82611bac565b9050602081019050919050565b82818337600083830152505050565b6000611d9a611d9584611d47565b611d2c565b905082815260208101848484011115611db657611db5611cc7565b5b611dc1848285611d78565b509392505050565b600082601f830112611dde57611ddd611cc2565b5b8135611dee848260208601611d87565b91505092915050565b600060208284031215611e0d57611e0c611cb8565b5b600082013567ffffffffffffffff811115611e2b57611e2a611cbd565b5b611e3784828501611dc9565b91505092915050565b600082825260208201905092915050565b6000611e5c82611b66565b611e668185611e40565b9350611e76818560208601611b82565b611e7f81611bac565b840191505092915050565b600073ffffffffffffffffffffffffffffffffffffffff82169050919050565b6000611eb582611e8a565b9050919050565b611ec581611eaa565b82525050565b7f4e487b7100000000000000000000000000000000000000000000000000000000600052602160045260246000fd5b60068110611f0b57611f0a611ecb565b5b50565b6000819050611f1c82611efa565b919050565b6000611f2c82611f0e565b9050919050565b611f3c81611f21565b82525050565b6000819050919050565b611f5581611f42565b82525050565b6000610160820190508181036000830152611f76818e611e51565b90508181036020830152611f8a818d611e51565b90508181036040830152611f9e818c611e51565b90508181036060830152611fb2818b611e51565b90508181036080830152611fc6818a611e51565b905081810360a0830152611fda8189611e51565b905081810360c0830152611fee8188611e51565b905081810360e08301526120028187611e51565b9050612012610100830186611ebc565b612020610120830185611f33565b61202e610140830184611f4c565b9c9b505050505050505050505050565b60008060008060008060c0878903121561205b5761205a611cb8565b5b600087013567ffffffffffffffff81111561207957612078611cbd565b5b61208589828a01611dc9565b965050602087013567ffffffffffffffff8111156120a6576120a5611cbd565b5b6120b289828a01611dc9565b955050604087013567ffffffffffffffff8111156120d3576120d2611cbd565b5b6120df89828a01611dc9565b945050606087013567ffffffffffffffff811115612100576120ff611cbd565b5b61210c89828a01611dc9565b935050608087013567ffffffffffffffff81111561212d5761212c611cbd565b5b61213989828a01611dc9565b92505060a087013567ffffffffffffffff81111561215a57612159611cbd565b5b61216689828a01611dc9565b9150509295509295509295565b61217c81611eaa565b811461218757600080fd5b50565b60008135905061219981612173565b92915050565b6000806000606084860312156121b8576121b7611cb8565b5b600084013567ffffffffffffffff8111156121d6576121d5611cbd565b5b6121e286828701611dc9565b935050602084013567ffffffffffffffff81111561220357612202611cbd565b5b61220f86828701611dc9565b92505060406122208682870161218a565b9150509250925092565b61223381611eaa565b82525050565b61224281611f21565b82525050565b61225181611f42565b82525050565b60006101608301600083015184820360008601526122758282611bbd565b9150506020830151848203602086015261228f8282611bbd565b915050604083015184820360408601526122a98282611bbd565b915050606083015184820360608601526122c38282611bbd565b915050608083015184820360808601526122dd8282611bbd565b91505060a083015184820360a08601526122f78282611bbd565b91505060c083015184820360c08601526123118282611bbd565b91505060e083015184820360e086015261232b8282611bbd565b91505061010083015161234261010086018261222a565b50610120830151612357610120860182612239565b5061014083015161236c610140860182612248565b508091505092915050565b600060208201905081810360008301526123918184612257565b905092915050565b6123a281611f42565b81146123ad57600080fd5b50565b6000813590506123bf81612399565b92915050565b6000602082840312156123db576123da611cb8565b5b60006123e9848285016123b0565b91505092915050565b6000602082019050818103600083015261240c8184611e51565b905092915050565b60006020820190506124296000830184611f4c565b92915050565b7f4e487b7100000000000000000000000000000000000000000000000000000000600052602260045260246000fd5b6000600282049050600182168061247657607f821691505b6020821081036124895761248861242f565b5b50919050565b600081905092915050565b60006124a582611b66565b6124af818561248f565b93506124bf818560208601611b82565b80840191505092915050565b60006124d7828461249a565b915081905092915050565b7f4d65646963696e65206e6f7420666f756e640000000000000000000000000000600082015250565b6000612518601283611e40565b9150612523826124e2565b602082019050919050565b600060208201905081810360008301526125478161250b565b9050919050565b7f4e6f7420746865206f776e657200000000000000000000000000000000000000600082015250565b6000612584600d83611e40565b915061258f8261254e565b602082019050919050565b600060208201905081810360008301526125b381612577565b9050919050565b7f4d65646963696e6520616c726561647920657869737473000000000000000000600082015250565b60006125f0601783611e40565b91506125fb826125ba565b602082019050919050565b6000602082019050818103600083015261261f816125e3565b9050919050565b60008190508160005260206000209050919050565b60006020601f8301049050919050565b600082821b905092915050565b6000600883026126887fffffffffffffffffffffffffffffffffffffffffffffffffffffffffffffffff8261264b565b612692868361264b565b95508019841693508086168417925050509392505050565b6000819050919050565b60006126cf6126ca6126c584611f42565b6126aa565b611f42565b9050919050565b6000819050919050565b6126e9836126b4565b6126fd6126f5826126d6565b848454612658565b825550505050565b600090565b612712612705565b61271d8184846126e0565b505050565b5b818110156127415761273660008261270a565b600181019050612723565b5050565b601f8211156127865761275781612626565b6127608461263b565b8101602085101561276f578190505b61278361277b8561263b565b830182612722565b50505b505050565b600082821c905092915050565b60006127a96000198460080261278b565b1980831691505092915050565b60006127c28383612798565b9150826002028217905092915050565b6127db82611b66565b67ffffffffffffffff8111156127f4576127f3611ccc565b5b6127fe825461245e565b612809828285612745565b600060209050601f83116001811461283c576000841561282a578287015190505b61283485826127b6565b86555061289c565b601f19841661284a86612626565b60005b828110156128725784890151825560018201915060208501945060208101905061284d565b8683101561288f578489015161288b601f891682612798565b8355505b6001600288020188555050505b505050505050565b600060808201905081810360008301526128be8187611e51565b905081810360208301526128d28186611e51565b90506128e16040830185611ebc565b6128ee6060830184611f4c565b95945050505050565b600060808201905081810360008301526129118187611e51565b90506129206020830186611ebc565b61292d6040830185611ebc565b61293a6060830184611f4c565b95945050505050565b6000604082019050818103600083015261295d8185611e51565b905061296c6020830184611f4c565b939250505056fea264697066735822122024d197ec0fb99125ec2426631d792851bad7dfece3c9dc5d7508970d3a7958a564736f6c63430008140033",
  "linkReferences": {},
  "deployedLinkReferences": {}
}